:020000040800F2
:1000000090FD002029030008DB6F0008495E00080E
:10001000D96F00080B0F00080DC600080000000093
:10002000000000000000000000000000690200085D
:10003000A51C000800000000C5020008C99D0008BA
:100040004303000843030008430300084303000878
:100050004303000843030008CD1D000843030008C4
:1000600043030008D31D0008D91D000843030008FE
:1000700089160008430300084303000843030008EF
:10008000430300084303000843030008190F000856
:100090000D0F00084303000843030008DF1D00089C
:1000A0004303000843030008430300084303000818
:1000B000999E000843030008430300084303000817
:1000C00043030008430300084303000843030008F8
:1000D0004303000829A500084303000835A50008CC
:1000E00043030008430300084303000843030008D8
:1000F00043030008A59E00084303000843030008CB
:1001000043030008430300084303000843030008B7
:1001100043030008430300084303000843030008A7
:100120004303000895160008A1160008611B00088B
:100130004303000843030008430300084303000887
:10014000250F000843030008430300083D72000820
:100150006D1B0008791B0008851B000809A6000814
:100160004303000843030008430300084303000857
:100170004303000843030008430300080000000095
:10018000430300084303000800F002F800F05CF8A5
:100190000AA090E8000C82448344AAF10107DA45E2
:1001A00001D100F051F8AFF2090EBAE80F0013F0D8
:1001B000010F18BFFB1A43F001031847AC1C0100E4
:1001C000CC1C01000A444FF0000C10F8013B13F066
:1001D000070408BF10F8014B1D1108BF10F8015BA0
:1001E000641E05D010F8016B641E01F8016BF9D193
:1001F00013F0080F1EBF10F8014BAD1C0C1B09D1EA
:100200006D1E58BF01F801CBFAD505E014F8016B5B
:1002100001F8016B6D1EF9D59142D6D370470000ED
:100220000023002400250026103A28BF78C1FBD8FF
:10023000520728BF30C148BF0B6070471FB510F090
:10024000CCFE1FBD10B510BD00F003FA1146FFF73C
:10025000F5FF0EF04FF800F021FA03B4FFF7F2FFBC
:1002600003BC00F025FA00002C4B19680868B0E8C0
:10027000F04F80F30988BFF36F8F4FF0000080F3D9
:10028000118870470000000008480068006880F38B
:1002900008884FF0000080F3148862B661B6BFF39F
:1002A0004F8FBFF36F8F00DF00BF00BF08ED00E08E
:1002B000DFF80C00016841F470010160704700BF75
:1002C00088ED00E0EFF30980BFF36F8F134B1A68DE
:1002D0001EF0100F08BF20ED108A20E9F04F1060CB
:1002E00009B44FF0500080F31188BFF34F8FBFF374
:1002F0006F8F0FF011FB4FF0000080F3118809BCE5
:1003000019680868B0E8F04F1EF0100F08BFB0EC95
:10031000108A80F30988BFF36F8F70479003002025
:10032000EFF30580704700000948804709480047FF
:10033000FEE7FEE7FEE7FEE7FEE7FEE7FEE7FEE795
:10034000FEE7FEE704480549054A064B70470000F2
:10035000899E00088901000890BD002090FD0020C2
:1003600090DD002090DD002053EA020C00F069804F
:100370002DE9F04B4FF00006002B1FBFB3FA83F5B9
:1003800003FA05F424FA05F65E4012BF1643B2FAEA
:1003900082F502FA05F4C5F120051EBF22FA05FC1C
:1003A00044EA0C04203556EA044C4FEA144418BFC2
:1003B000641C4FF000084FF00009904271EB030CF1
:1003C00039D3002919BFB1FA81F701FA07F6B0FA5B
:1003D00080F700FA07F6C7F120071EBF20FA07FCD6
:1003E00046EA0C062037B6FBF4FCA7EB0507103FE6
:1003F00007F01F0BCBF120060CFA0BFB2CFA06F6CC
:1004000044BFB3460026202FA4BF5E464FF0000B2A
:100410005BEA060C08BF4FF0010B19EB0B09ABFBB5
:10042000027C48EB0608C01B06FB02CC0BFB03CC8E
:1004300071EB0C01C1E70B46024641464846BDE858
:10044000F08B13B54FF000004FF00001AFF30080C8
:10045000BDE81C40704710B5431C02E010F8011BBA
:1004600071B18107FAD14FF0013202C88C1A8C4366
:1004700014EAC211F9D0C01A0A0603D0C01E10BD7A
:10048000C01A10BD0A0401D0801E10BD0902FCD0A4
:10049000401E10BD032A40F2308010F0030C00F023
:1004A000158011F8013BBCF1020F624498BF11F8AE
:1004B00001CB00F8013B38BF11F8013BA2F1040267
:1004C00098BF00F801CB38BF00F8013B11F00303DF
:1004D00000F02580083AC0F0088051F8043B083A43
:1004E00051F804CBA0E80810F5E7121D5CBF51F8E5
:1004F000043B40F8043BAFF30080D20724BF11F85F
:10050000013B11F801CB48BF11F8012B24BF00F8C3
:10051000013B00F801CB48BF00F8012B704710B534
:10052000203AC0F00B80B1E81850203AA0E81850EB
:10053000B1E81850A0E81850BFF4F5AF5FEA027CAC
:1005400024BFB1E81850A0E8185044BF18C918C01B
:10055000BDE810405FEA827C24BF51F8043B40F8BC
:10056000043B08BF7047D20728BF31F8023B48BFA1
:1005700011F8012B28BF20F8023B48BF00F8012BDF
:10058000704702F0FF0343EA032242EA024200F00E
:1005900002B84FF000020429C0F0128010F0030CE2
:1005A00000F01B80CCF1040CBCF1020F18BF00F866
:1005B000012BA8BF20F8022BA1EB0C0100F00DB815
:1005C0005FEAC17C24BF00F8012B00F8012B48BF73
:1005D00000F8012B70474FF0000200B51346944617
:1005E0009646203922BFA0E80C50A0E80C50B1F18B
:1005F0002001BFF4F7AF090728BFA0E80C5048BF9F
:100600000CC05DF804EB890028BF40F8042B08BF3C
:10061000704748BF20F8022B11F0804F18BF00F838
:10062000012B704770477047704710B500F00CF809
:10063000006810BD10B5044600F006F8046010BD57
:10064000004870472CBD0020004870472CBD00209A
:1006500070477546FFF7F4FFAE46050069465346FE
:1006600020F00700854618B020B5FFF76BFEBDE807
:1006700020404FF000064FF000074FF000084FF009
:10068000000B21F00701AC46ACE8C009ACE8C0099A
:10069000ACE8C009ACE8C0098D46704710B5044607
:1006A000AFF300802046BDE81040FFF7D6BD000044
:1006B00001491820ABBEFEE7260002000CF09CB8F2
:1006C0000CF030B90CF07CBDF0EE400AF5EEC00A3B
:1006D000F1EE10FA02DDB0EE600A7047B1EE600A8A
:1006E000FBE70000002803D09FED020A80ED000A1E
:1006F0007047000000000000002803D0B3EE060A97
:1007000080ED000A7047000070B52DED0C8B84B0B1
:1007100006460C4615469FED990AF0EE408A9FED7D
:10072000970AB0EE409A9FED950AF0EE40BA9FED21
:10073000930AF0EE409A9FED910AB0EE40AA0EB1F6
:1007400004B11DB904B0BDEC0C8B70BD8C48FFF733
:10075000C9FF8C48FFF7D0FF8A48D0ED000A9FED13
:100760008A1A60EE810AB0EE600A00F025F9F0EE18
:10077000408A28EEA80AF0EE408A8248D0ED000AAE
:10078000B0EE001A60EE810A9FED7F1A60EE810ADA
:10079000B0EE600A00F010F9B0EE409A29EE090AB6
:1007A000B0EE409ADFED790AB7EE000A00EEA80A33
:1007B000DFED770A00EEC90ADFED760A20EE200AA7
:1007C000754880ED000A6E4890ED000ADFED730A6F
:1007D00080EE201AB7EE000A31EE000A20EE000A81
:1007E0006D48D0ED000A80EE801A6D4880ED001A49
:1007F00094ED000AB5EEC00AF1EE10FA0DD194EDB9
:10080000010AB5EEC00AF1EE10FA06D194ED020A23
:10081000B5EEC00AF1EE10FA46D09FED580AB0EEE0
:10082000408A0020019002900390D4ED000A60EE0F
:10083000A00A94ED011AD4ED011A41EE210A94EDBB
:10084000021AD4ED021A41EE210AB0EE600A00F05D
:10085000A9F8B0EE408A94ED000A20EE080A8DED6A
:10086000010A94ED010A20EE080A8DED020A94EDCA
:10087000020A20EE080A8DED030ADDED010AF1EE11
:10088000600AB0EE600AFFF719FFF0EE409A9DEDA6
:10089000031AF0EE410A9DED021AB0EE410AFFF78D
:1008A0000FFFB0EE40AA07E09FED340AF0EE409A49
:1008B0009FED320AB0EE40AA95ED000AB5EEC00AEF
:1008C000F1EE10FA0DD195ED010AB5EEC00AF1EE88
:1008D00010FA06D195ED020AB5EEC00AF1EE10FA53
:1008E0003CD0B0EE690A00F067F8B0EE408AB0EE96
:1008F000690AFFF7E7FEB0EE40DAB0EE4A0A00F010
:100900005BF8F0EE40AAB0EE4A0AFFF7DBFEB0EE6D
:1009100040BA28EE2A0AD5ED010A20EE200AD5EDCC
:10092000000A0DEE200A68EE0B0A95ED021A00EEA1
:10093000810AB0EE40CA95ED010A20EE0B0AD5ED12
:10094000020A0AEEE00AF0EE40CAF0EE6C0AB0EEDF
:100950004C0AFFF7B5FEF0EE40BA03E09FED070A40
:10096000F0EE40BAB0EE4A1AF0EE690AB0EE6B0A49
:1009700030460CF06FFB00BFE4E600000000000012
:100980009C040020A004002035FA8E3CC1BFAD3B82
:100990009DF8C5362F7C1C41A4040020506CC24A2F
:1009A000A804002010B50CF05AF9B7EE001AC1EEF9
:1009B000000AB0EE600A10BD0CF046BC2DE9F04113
:1009C0002DED028B9AB00546B0EE408A0E461746D2
:1009D0009846002017901890199014901590169032
:1009E0004DB146B13FB1B8F1000F04D0B5EEC08AA9
:1009F000F1EE10FA05D100201AB0BDEC028BBDE873
:100A0000F08196ED000A8DED170A96ED010A8DED45
:100A1000180A96ED020A8DED190A97ED000A8DED80
:100A2000140A97ED010A8DED150A97ED020A8DED76
:100A3000160A17AA14A928460CF044F9402104A864
:100A4000FFF7C9FD00200090019002900390002460
:100A500017A904A80EF0CAFC00BF30E004A800EB00
:100A6000041090ED000AD5ED000A20EE200A04A83B
:100A700000EB0410D0ED010A95ED011A00EE810A99
:100A800004A800EB0410D0ED020A95ED021A00EE66
:100A9000810A04A800EB0410D0ED030A95ED031AB7
:100AA00000EE810A20EE080AF0EE000A80EE201A1D
:100AB000684600EB840080ED001A601CC4B2042C70
:100AC000CCDB002410E005EB840090ED000A6846C2
:100AD00000EB8400D0ED000A30EE200A05EB840024
:100AE00080ED000A601CC4B2042CECDB28460EF03A
:100AF000FBFA012080E7000010B52DED028B9FED81
:100B0000208ADFED200A30EE480A20EE200ADFEDD1
:100B10001E0A20EE200A05F0B9FD10EE100A1B494E
:100B2000884204DC10EE100A1949884204D39FED74
:100B3000190ABDEC028B10BD10EE100A16494FF4D5
:100B400053020844904202D29FED140AF1E710EEDE
:100B5000100A1349884208D210EE100A0E49C94300
:100B6000884202DCB0EE480AE3E710EE100A0C49B6
:100B7000494208449042DCD29FED0A0AD9E70000BE
:100B800000108B45000000390000B443000007430B
:100B9000000007C300800546FFFFCBBD0010CB451A
:100BA000000034C20020164501221021014802F045
:100BB000BCBC00000000024000221021014802F0ED
:100BC000B4BC000000000240704700000122114642
:100BD000014802F0AABC00000004024000220121EA
:100BE000014802F0A2BC00000004024030B5437886
:100BF00004781B021BB2234300EE103A1B4CB8EEE4
:100C0000C00AD4ED000A20EE200A81ED000AC37864
:100C100085781B021BB22B4300EE103AF8EEC00A97
:100C200094ED000A60EE800AC1ED010A437904796F
:100C30001B021BB2234300EE903AF8EEE00A20EECE
:100C4000800A81ED020A017AC3790904807941EAB8
:100C50000321014300EE101ADFED050AB8EE400A49
:100C600020EE200A82ED000A30BD0000C002002004
:100C700000401C4270470DF0F9BB0DF00BB80000AE
:100C800010B542780378120212B21A4300EE102A0D
:100C9000124BB8EEC00AD3ED010A20EE200A81ED16
:100CA000000AC2788478120212B2224300EE102A9F
:100CB000F8EEC00A93ED010A60EE800AC1ED010A68
:100CC00042790079120212B2024300EE902AF8EE45
:100CD000E00A20EE800A81ED020A10BDC002002069
:100CE00010B5FFF771FFFFF7C5FF0CF07DFB08B1F2
:100CF000802402E00CF0EAFA04460CF03BFD10B14F
:100D000044F0400010BD0CF0C7FC204310BD0000B3
:100D10002DE9FC4104460D46164600200090019046
:100D2000FFF74AFF922000F0BFF806226946122022
:100D300000F09CF8FFF738FF9DF801009DF80010C7
:100D4000000200B2084300EE100A474FB8EEC00A96
:100D5000D7ED000A20EE200A85ED000A9DF8030079
:100D60009DF80210000200B2084300EE100AF8EEEF
:100D7000C00A97ED000A60EE800AC5ED010A9DF8F1
:100D800005009DF80410000200B2084300EE900A2E
:100D9000F8EEE00A20EE800A85ED020AFFF71EFF5A
:100DA00008226946002000F061F8FFF70FFF9DF868
:100DB00000000F2830D19DF803009DF802100002BA
:100DC00000B2084300EE100AD7ED010AB8EEC00ADF
:100DD00020EE200A84ED000A9DF805009DF804101D
:100DE000000200B2084300EE100AF8EEC00A97EDC8
:100DF000010A60EE800AC4ED010A9DF807009DF823
:100E00000610000200B2084300EE900AF8EEE00A75
:100E100020EE800A84ED020AFFF7CEFEA22000F049
:100E200043F802226946222000F020F8FFF7BCFEBA
:100E30009DF800009DF80110C00040EA5110B0F587
:100E4000806F02DBA0F5006000B200EE100AB4EE85
:100E5000001AF8EEC00AB3EE070A00EE810A86ED2A
:100E6000000ABDE8FC810000C002002070B50D46FC
:100E7000144640F0800000F017F806E0552000F01E
:100E800013F805F8010B641EE4B2002CF6D170BD16
:100E900010B50C4640F0800000F006F8552000F038
:100EA00003F8207010BD000001B582B04FF47A70D5
:100EB0000090012301AA02A9024803F0E9FF9DF86E
:100EC00004000EBD4439002002784078D20042EA86
:100ED0005010B0F5806F02DBA0F5006000B200EEAC
:100EE000100AB4EE001AF8EEC00AB3EE070A00EEDC
:100EF000810A81ED000A704710B50C46FFF7D4FF58
:100F00002046BDE81040FFF7CFBFFEE7014801F0E3
:100F1000ADBB0000A0380020014801F0A7BB0000D5
:100F2000A0380020014801F0A1BB0000C838002013
:100F300000B589B04FF4A070039000200590069092
:100F4000082007909FED1D2A20EE020ABCEEC00A81
:100F500010EE100A8DF80400000A8DF8050020EE4E
:100F6000820ABCEEC00A10EE100A8DF80600000AD4
:100F70008DF8070021EE020ABCEEC00A10EE100A3E
:100F80008DF80800000A8DF8090021EE820ABCEEF7
:100F9000C00A10EE100A8DF80A00000A8DF80B0046
:100FA0006B4601AA03A9064801F0C6F9002803D040
:100FB00001A903A800F0C8F809B000BD0000C842AC
:100FC000A038002010B58AB04FF4007404940024B7
:100FD0000694079408240894040A8DF808408DF8B4
:100FE0000900080A8DF80A008DF80B10100A8DF818
:100FF0000C008DF80D20180A8DF80E008DF80F30BA
:1010000001AB02AA04A9054801F096F9002803D013
:1010100002A904A800F098F80AB010BDA03800207A
:1010200010B58AB040F2FF1404940024069407948B
:1010300008240894040A8DF808408DF80900080A6D
:101040008DF80A008DF80B10100A8DF80C008DF841
:101050000D20180A8DF80E008DF80F3001AB02AA92
:1010600004A9054801F068F9002803D002A904A8E2
:1010700000F06AF80AB010BDA038002010B58AB0A0
:1010800040F2FF1404940024069407940824089462
:10109000040A8DF808408DF80900080A8DF80A0046
:1010A0008DF80B10100A8DF80C008DF80D20180A21
:1010B0008DF80E008DF80F3001AB02AA04A902488A
:1010C00001F03AF90AB010BDC838002010B54FF44D
:1010D00000610448FFF77FFA034800218170017026
:1010E000417010BD44060020440E002070B5064635
:1010F0000D4672B6134C94F8020800281DD094F8DF
:101100000008182204EB401108313046FFF707FAB7
:1011100094F80008326904EB40112846FFF7BAF949
:1011200004F500642078401C00F03F002070A07897
:10113000401EA07062B6002070BD62B64FF0FF3056
:1011400070BD00004406002070B506460D4672B61C
:10115000144C94F8000894F80218084400F03F007A
:1011600084F8010804EB4010083018223146FFF7DC
:10117000D6F994F80108294604EB40103269FFF7CC
:1011800089F994F80208402804D0401C84F8020829
:1011900062B670BD94F80008401C00F03F0084F86F
:1011A0000008F5E74406002004284FF000007047CF
:1011B0000020704710B500220449054809F098FC4A
:1011C0000449034809F086FC002010BDA452002009
:1011D000C43E0020A44A002010B5044609882046D9
:1011E00089B209F0AFFF2146034809F073FC0248B9
:1011F00009F040FC002010BDC43E002000207047D4
:1012000010B50A460849D1F8BC12D1F814120029C9
:1012100001D0012010BD0146034809F069FCBDE87A
:101220001040014809F0FCBCC43E002010B5FF226C
:10123000054C03E010F8013B5340E25C491E4B1C97
:10124000F8D1104610BD0000E012010830B5054687
:101250000C46002D01D0022C01D8002030BD611EAB
:101260002846FFF7E3FF291911F8011C884201D134
:10127000012030BD002030BD10B502464FF6FF7092
:10128000002A0CD0064C07E012F8013B4340DBB2C9
:1012900034F8133083EA1020491E4B1CF4D110BDE2
:1012A000E013010830B505460C46002D01D0022C94
:1012B00001D8002030BDA11E2846FFF7DDFF291907
:1012C000C2B211F8023C9A4206D111F8011CB1EBEE
:1012D000102F01D1012030BD002030BD10B5FF22FC
:1012E000054C03E010F8013B5340E25C491E89B213
:1012F000F8D2104610BD0000A410010810B53E48F9
:101300003F4903783D484089421F002B06D03D4BA2
:10131000DB7A012B0CD0032B20D106E000EE102A43
:10132000B8EEC00A81ED020A10BD00234B7015E033
:10133000354B9B7F012B06D0022B07D00B78012B5E
:1013400007D04BB10AE003234B7007E004234B7036
:1013500004E002234B7001E001234B702B4B2C4C1B
:1013600093ED000A10EE103AA34235DD4B789FED65
:10137000291A052BD8D2DFE803F0030C131E27002F
:1013800000EE900AF8EE600A40EE010AC1ED020A92
:1013900010BD00EE102AB8EEC00A81ED020A10BDA1
:1013A00000EE900A9FED1C1AF8EE600A40EE010A6A
:1013B000C1ED020A10BD00EE900AF8EE600A40EEA0
:1013C000010AC1ED020A10BD643000EE100AB8EE49
:1013D000400A81ED020A10BD00EE900AB7EE001A35
:1013E000F8EE600A31EE400AB2EE041A40EE410A0D
:1013F000C1ED020A10BD0000240000207831002059
:1014000038020020EF30002094300020800E0020B1
:101410009A99993E0000C84200008C422DE9F041A3
:1014200007460224284EF07A032809D1B6F908109D
:10143000B1F5FA7F04DA11F5FA7F01DD012500E04C
:101440000025032800D14DB14FF00008022803D039
:1014500000200DF04DFF20B1012103E04FF0010805
:10146000F4E700211948D0F8120000EE100AB5EE9A
:10147000C00AF1EE10FA02D1F27A012A00D000225D
:1014800000EE100AB5EEC00AF1EE10FA02D0F07AC2
:10149000012800D000200E4B4FF0040C1B78BCEB51
:1014A000131F02D0F37A012B00D00023194307D178
:1014B00058EA000801D0012402E0154300D00024BE
:1014C0003C702046BDE8F081EF30002094300020D1
:1014D0004D310020F0B500201D4EB7EE000A1B4D27
:1014E000D6ED050A184C05F5A07730EE601A00EB32
:1014F000800101EBC001214400EB8002B1F9021030
:1015000005EB021300EE101AB8EEC00A07EB8002DA
:10151000D2ED001A20EE010A01EEA00A83ED000AC6
:1015200000EE101AB8EEC00A82ED000A401CC0B2EC
:101530000428DCD30748008900EE100AB8EE400A00
:1015400086ED030AF0BD0000CD050020EC1E002052
:10155000380200208531002070B52DED028B00246B
:10156000114D9FED128ADFED128A04EB840005EB2A
:1015700000100A30F0EE480AB0EE680A0D4A002169
:1015800006F071F8641CE4B2042CEED3BDEC028BBF
:10159000084ABDE870400C32DFED070A9FED070AEC
:1015A0000021074806F05FB8EC1E00200000FA4456
:1015B00000007A468C1001080080BB4400409C4625
:1015C0004C2000202DED028B82B0FFF7C5FFC82014
:1015D0000EF086F8284E274DA6F5A874274FDFF8A1
:1015E000A0809FED288A04F1F40B04F1A40904F112
:1015F000540A2048C01CFFF711FFE870FFF76AFF8C
:10160000FFF77CFE04F022FCE8780CF079FAE87829
:10161000009096ED021AD6ED010A96ED000A5B469F
:101620004A465146201D0CF081FAE8780CF0DEF9AC
:101630003889F0EE480A00EE100AB8F80A00F0EE19
:10164000601AB8EE401A401F00EE100AB8EEC00A49
:10165000FFF76EFC0CF058FFB4F9F830B4F9A8208D
:10166000B4F95810B4F90800FFF7ACFC02200EF0F2
:1016700037F8BEE7380200203C20002085310020EA
:101680007831002000000000014801F063BC000038
:10169000A43D0020014801F05DBC0000043E002094
:1016A000AFF300802DE9F05FFA48FB4AFA4DC06CB9
:1016B000FA4EF94F0068DFF8E4C3DFF8DC83DFF8A7
:1016C000DC93DFF8D4A3DFF8D4B3DFF8CCE3F34C3A
:1016D000483D60361837D1140CF1180CA8F13008C9
:1016E00009F178090AF1300A0BF1300BAEF1180E4E
:1016F00090423ED9E84A543A1368A04201D12022D0
:1017000035E0A84201D1202231E0B04201D12022AF
:101710002DE0B84201D1202229E0604501D10A46DE
:1017200025E0404501D10A4621E0484501D10A465D
:101730001DE0504501D10A4619E0584502D14FF449
:10174000001214E0704502D14FF400120FE0D34AAA
:101750009032904202D14FF4001208E0CE4A483253
:10176000904202D14FF4001201E04FF000621340AA
:10177000C3E0CA4AA83290423ED9C74A583A1368D1
:10178000A04201D1202235E0A84201D1202231E03F
:10179000B04201D120222DE0B84201D1202229E01F
:1017A000604501D10A4625E0404501D10A4621E0C5
:1017B000484501D10A461DE0504501D10A4619E0CD
:1017C000584502D14FF4001214E0704502D14FF495
:1017D00000120FE0B14A9032904202D14FF4001251
:1017E00008E0AD4A4832904202D14FF4001201E0C5
:1017F0004FF00062134080E0A84A483290423ED940
:10180000A64A103A5368A04201D1202235E0A842EE
:1018100001D1202231E0B04201D120222DE0B84296
:1018200001D1202229E0604501D10A4625E040454A
:1018300001D10A4621E0484501D10A461DE0504544
:1018400001D10A4619E0584502D14FF4001214E0C4
:10185000704502D14FF400120FE0904A903290424E
:1018600002D14FF4001208E08B4A4832904202D174
:101870004FF4001201E04FF0006213403DE0874A50
:10188000103A1368A04201D1202235E0A84201D1CC
:10189000202231E0B04201D120222DE0B84201D116
:1018A000202229E0604501D10A4625E0404501D1CA
:1018B0000A4621E0484501D10A461DE0504501D1C4
:1018C0000A4619E0584502D14FF4001214E0704561
:1018D00002D14FF400120FE0704A9032904202D1D0
:1018E0004FF4001208E06C4A4832904202D14FF4A3
:1018F000001201E04FF000621340002B72D0664AE4
:10190000904235D9A04201D120212DE0A84201D139
:10191000202129E0B04201D1202125E0B84201D1A7
:10192000202121E060451FD040451DD048451BD0F7
:10193000504519D0584502D14FF4001114E07045BC
:1019400002D14FF400110FE054499031884202D186
:101950004FF4001108E050494831884202D14FF459
:10196000001101E04FF000614B484C380160ADE0E0
:101970004A4AA832904236D9A04201D120212DE016
:10198000A84201D1202129E0B04201D1202125E047
:10199000B84201D1202121E060451FD040451DD033
:1019A00048451BD0504519D0584502D14FF400117D
:1019B00014E0704502D14FF400110FE03749903127
:1019C000884202D14FF4001108E03349483188427F
:1019D00002D14FF4001101E04FF000612E48503861
:1019E000016073E0AEE02D4A4832904235D9A04202
:1019F00001D120212DE0A84201D1202129E0B042CF
:101A000001D1202125E0B84201D1202121E060450B
:101A10001FD040451DD048451BD0504519D05845D2
:101A200002D14FF4001114E0704502D14FF40011BF
:101A30000FE01A499031884202D14FF4001108E0BA
:101A400015494831884202D14FF4001101E04FF0AE
:101A5000006112481038C16038E0A04201D1202155
:101A600031E0A84201D120212DE0B04201D1202156
:101A700029E0B84201D1202125E0604523D040452E
:101A800021D048451FD050451DD0584508D14FF4AE
:101A9000001118E0443900205864024010600240F0
:101AA000704502D14FF400110DE02749884202D160
:101AB0004FF4001107E02549884202D14FF400118C
:101AC00001E04FF000612048A0388160204C207870
:101AD00080070CD5207820F002002070207840F09C
:101AE00004002070012211461A4801F01EFD6078A2
:101AF000194D80070CD5607820F002006070607886
:101B000040F00400607001221021284601F00DFD14
:101B1000A07880070CD5A07820F00200A070A078F3
:101B200040F00400A07001221021284601F0FDFCC5
:101B30000CF08AFA2078400704D50848016841F083
:101B400001010160BDE8F09FA0600240A064024076
:101B5000480100200004024000000240103C014007
:101B6000014801F0F7B90000FC390020014801F0FC
:101B7000F1B90000443D0020014801F0EBB900003C
:101B8000643E0020014801F0E5B90000E43C00207B
:101B90000168CAB2103A1823B2FBF3F2064B9B5C01
:101BA000C3656FF30901032A02D9091D816500E0AD
:101BB0008165806D70470000C012010810B50146B4
:101BC00000208A6A8B694FF0C074002B0ED0B3F5E9
:101BD000005F1AD062B3012A2AD0022A28D0032A31
:101BE00003D1C96AC90100D5012010BD1AB1012A6B
:101BF00006D0022AF9D1C96AC901F6D5012010BD63
:101C0000C96AA142FBD1012010BD52B1012A0AD0FC
:101C1000022A06D0032AF7D1C96AA142F4D10120D1
:101C200010BD012010BDC96AC901FBD5012010BD3E
:101C3000012010BD30B50468256825F48025256095
:101C4000046863608368402B04D00368996000686F
:101C5000C26030BD03689A600068C16030BD00009A
:101C600070B50E4D0E4C287BC00707D0E07928B91F
:101C70000520A0714FF47A7001F0F6FA287B00F08D
:101C80000100E07106E0012108460CF04DF8A07952
:101C9000401EA071A0790028F5D170BD78310020D8
:101CA000F0010020704700002DE9F0414048414C10
:101CB000414D007B4FF00006400704F1190704F185
:101CC0005E083AD5B4F9160044F250610844490060
:101CD000884232D920680FF00FF941EC100B0AF05E
:101CE00077FF9FED361B51EC100B53EC112B0EF0D0
:101CF00013FE22D22869401C2861C8281DD9B4F9D6
:101D00001600002803DA41F28830E08202E04EF645
:101D10007840E08264200DF0E3FC07F0E3FE3846F3
:101D200005F090FC404605F08DFC2E61254890EDB5
:101D3000000AB8EEC00A84ED030A2889012815D0EC
:101D40009FED210A84ED010AD4ED010A94ED000A09
:101D5000384605F05DFBD4F8360000EE100ABDEE03
:101D6000C00A10EE100AE082BDE8F081687818B170
:101D7000A878012809D010E0B5F9060000EE100A95
:101D8000B8EEC00A84ED010ADEE76889401C80B223
:101D90006881322801D9AE706E81D4ED030A94EDCA
:101DA000020A404605F034FBD4F87B006060CBE7C4
:101DB00078310020A41300200C0200200000000055
:101DC000000059401000002000000000012001F038
:101DD000A9BA082001F0A6BA102001F0A3BA202069
:101DE00001F0A0BA04218C4803F0E8FC08218A48DD
:101DF00003F0E4FC894C60782071E1786171DFF8D0
:101E000018A2DAF800209163DAF80010C8630127FD
:101E1000A7710525E571DFF808B2DFF80882DFF861
:101E200008920026207A08B1401E20729BED010A1C
:101E3000B5EEC00AF1EE10FA01DCB1EE400AB5EEE3
:101E4000C00AF1EE10FA0DDD9BED000AB5EEC00AF6
:101E5000F1EE10FA01DCB1EE400A10EE100A404536
:101E600000DD25729BED2A0AB5EEC00AF1EE10FAEC
:101E700001DCB1EE400AB5EEC00AF1EE10FA0DDD5C
:101E80009BED290AB5EEC00AF1EE10FA01DCB1EEC5
:101E9000400A10EE100A404500DD257299F80B004B
:101EA000012803D0032801D00A20207299F80A00E3
:101EB000022803D0B9F81400C00501D514202072FF
:101EC000207A30B120782071A0786071A671E57118
:101ED00095E0B9F900000A2808DD6078143820710F
:101EE000A07814386071A671E57188E06FF009017F
:101EF000884208DA207814302071E078143060715C
:101F0000A771E5717BE0B9F906000A2806DD2078A3
:101F10002071A0786071A671E57170E0884206DAE0
:101F200060782071E0786071A771E57167E0B9F9B8
:101F300004000A280CDD60782178084440082071EC
:101F4000E078A178084440086071A671E57156E018
:101F500088420CDA60782178084440082071E078E3
:101F6000A178084440086071A771E57147E0E07905
:101F700060B161782278114449082171E178A27832
:101F8000114449086171401EE07138E0A079C8B978
:101F9000217960784A1C824201D2491C00E0014646
:101FA000CBB223716279E178A2F1010C8C4501DD9D
:101FB000521E00E00A46D2B26271834202D18A42C6
:101FC00000D1A771A079012819D1217920784A1E62
:101FD000824201DD491E00E00146CBB223716279E5
:101FE000A17802F1010C8C4501D2521C00E00A4696
:101FF000D2B26271834202D18A4200D1A671DAF86C
:10200000001060798863DAF800102079C8630A202C
:102010000DF066FB06E70000343B00202C02002098
:10202000A413002000007A44EF30002072B6FEE7CF
:1020300010B52249224C087894ED000A002814D0EB
:10204000DFED200AC4ED010ADFED1F0AC4ED2A0A04
:1020500010EE100A1D4A90420DDD1D4AD4F8A4006E
:10206000904208D90120088105E0DFED1A0AC4ED8D
:10207000010AC4ED2A0A1248D4ED010A193005F00C
:10208000C7F90F48D4ED2A0A94ED290ABD3005F0AE
:10209000BFF9D4F8360000EE100ABDEEC00A10EE0B
:1020A000100AE082D4F8DA0000EE100ABDEEC00A91
:1020B00010EE100AA4F8BA0010BD00000C020020B7
:1020C000EC1400200080BB450080BBC50040B54536
:1020D0000040B5C50000000010B50B480168001DA8
:1020E0000468001D0068084400280BD00822074936
:1020F00004F09CFA054920460422BDE81040103146
:1021000004F094BA10BD0000107AFF1F52030020A3
:1021100010B5154890ED000A80ED020A134CDFED72
:10212000140A94ED070A20EE200A80ED000A114AF5
:1021300092ED000A80ED030A0F490B8800EE103A79
:10214000B8EE400A80ED050AB1F9021000EE101A4F
:10215000B8EEC00A80ED060A084801688160A169EE
:1021600001609168C16010BDB4110020100F002003
:10217000E12E6542F80E002001060020EA0400204E
:1021800010B52DED028B0021DFED210A9FED210A14
:10219000214A224805F067FA1F4A2048DFED200A4D
:1021A0009FED200A0C320021453005F05CFA9FEDCE
:1021B0001E8A194A1948F0EE480A9FED1C0A183287
:1021C00000218A3005F04FFA134AF1EE040AB2EE0C
:1021D000040A24320021164805F045FA0E4A144834
:1021E000F7EE000AB1EE020A30320021453005F068
:1021F0003AFAF0EE480A084A0D483C32BDEC028B30
:102200000021BDE81040B3EE040A8A3005F02BBA75
:1022100000401C460060EA46FC0F0108DA1100206D
:1022200000004842000096440000000000004844BE
:10223000FE0400202DED028BFFF7A2FF2F4D0220A0
:10224000E8724FF4966001F00FF8012108460BF098
:102250006BFDC8200DF044FA9FED298A294CFFF749
:10226000FFFCFFF755FF0AF0D3F905F01BFAE87AF7
:10227000022827D0244800231A46B0F92400194622
:10228000FEF7CEFE2148B0F93C0000EE100A012016
:10229000B8EEC02AB0EE480AF0EE401AB0EE401A8E
:1022A000F0EE400A0BF06EFC1948B4F9BA30B4F9FC
:1022B0001620B0F916100020FEF7E0FE01200DF008
:1022C0000FFACCE700231A4619461846FEF7A8FE77
:1022D000B0EE480A0120B0EE402AF0EE401AB0EE0F
:1022E000401AF0EE400A0BF04DFC0021B4F9BA3070
:1022F000B4F916200846FEF7C1FEDFE7EF300020F4
:1023000000000000EC140020B4110020AC040020F8
:10231000A413002090F82020012A07D0022A05D01B
:10232000416A41F48021416201207047006842699E
:102330000A43426100207047F0B590F820500468CD
:10234000A468012D07D0022D05D0416A41F48021F7
:1023500041620120F0BD04F0806504F00066354361
:1023600001D1E50053D5C4F301640125A5401D60EA
:102370008B684FF4C0759BB1CE6805EB04173343EF
:102380004E6843EAC6030668F3514FF4C273076808
:1023900003EB04130E69FE50097D012909D00DE0FD
:1023A0000E88CB6805EB041743EA46530668F351E1
:1023B000EBE70168CE5846F48076CE501179D37998
:1023C000567941EA036193791B0443EA06231943D2
:1023D0004FF4C676036806EB041699511178D3784A
:1023E00041EA0361937852781B0443EA02221143C5
:1023F0004FF4C473026803EB0413D150006805EB7B
:102400000411425842F0010242500020F0BD416ADE
:1024100041F4001141620120F0BD000010B590F8B8
:102420002020012A07D0022A05D0416A41F48021E8
:102430004162012010BD3C4800F50070026842F086
:1024400001020260026822F47C52026002684B6A58
:1024500042EA032202600A7D02F01F0301229A4031
:10246000C3699343C361A0F50070CB69B3B9D0F8D9
:102470000C329343C0F80C328C894B6864F31F43D1
:102480004C6900EBC404C4F840320C890B6864F357
:102490001F434C6900EBC404C4F84432CB69012BE0
:1024A00016D1D0F80C321343C0F80C320C884B68AC
:1024B00064F31F434C6900EBC404C4F840320C8938
:1024C000CB6864F31F434C6900EBC404C4F8443286
:1024D0008B697BB1D0F804321343C0F804320B6926
:1024E00073B1D0F814321343C0F81432096A0129C9
:1024F0000CD010E0D0F804329343C0F80432EEE779
:10250000D0F814329343C0F81432EFE7D0F81C121D
:102510001143C0F81C12D0F8001221F00101C0F8DC
:102520000012002010BD000000640040704770B52C
:1025300090F82040012C07D0022C05D0416A41F4CC
:1025400080214162012070BD21B104682469A40783
:102550002AD003E00468E468A4071FD04FF4D874BD
:10256000056804EB01142D5905F0040595600DB3C1
:1025700005682D59ED08556005682C5904F00204D2
:10258000D4604FF4DA74056804EB01142E5906F098
:102590000F06082E13D30825156114E0416A41F493
:1025A00000114162012070BD416A41F40011416295
:1025B000012070BD05682D596D0D1560DCE72D59A2
:1025C00005F00F05156105682D59C5F307259561BF
:1025D00005682C59240C54614FF4DC72046802EB3A
:1025E0000112A4581C700468A458240A5C70046882
:1025F000A458240C9C700468A258120EDA704FF490
:10260000DE72046802EB0112A4581C710468A4581D
:10261000240A5C710468A458240C9C710468A258B4
:10262000120EDA7131B10068016941F020010161D7
:10263000002070BD0068C16841F02001C160F7E76B
:102640000246002092F82010012901D002290CD165
:1026500011688A68520100D501208A68120100D5EC
:10266000401C8968C90000D5401C70472DE9F05F07
:102670000546002428684669D0F804908768D0F899
:102680000CA0D0F810B0D0F81880F10748D0F907A6
:1026900014D001218160B80703D5284600F0BCFBA7
:1026A0000CE0780702D54FF4006407E0380702D544
:1026B0004FF4805402E0284600F0ADFBF80516D533
:1026C00029684FF480708860B80503D5284600F06B
:1026D000ADFB0CE0780502D544F4005407E0380562
:1026E00002D544F4804402E0284600F09DFBF80344
:1026F00016D529684FF480308860B80303D5284682
:1027000000F09EFB0CE0780302D544F4004407E09F
:10271000380302D544F4803402E0284600F08EFBF2
:10272000300707D55FEACA6004D544F4007429680D
:102730001020C86070074FF0080707D55FEA0A70DD
:1027400004D52868C760284600F0C0F9B00706D550
:102750002868C068800702D0284600F0B9F97006E2
:1027600007D55FEACB6004D544F480642968102063
:102770000861B00607D55FEA0B7004D528680761C9
:10278000284600F019FBF00606D528680069800786
:1027900002D0284600F011FBB00308D55FEAC960FB
:1027A00005D5296810204860284600F007FBF00393
:1027B00007D55FEA097004D528684760284600F00D
:1027C00047FB300446D55FEA497040D5F00504D593
:1027D0005FEAC87001D044F00104B00504D55FEA97
:1027E000887001D544F00204700504D55FEA487092
:1027F00001D544F00404300529D518F0700F26D017
:1028000008F07000402815D006DC102809D02028D8
:102810000AD0302816D10AE050280ED0602811D1F5
:102820000EE044F008040DE044F010040AE044F027
:10283000200407E044F0400404E044F0800401E098
:1028400044F480742868816921F0700181612968ED
:1028500004204860002C05D0686A2043686228463E
:10286000FFF764FEBDE8F09F70B50446002C03D06E
:1028700094F8200010B104E0012070BD204600F063
:102880009DF82068016841F00101016000F054FEEC
:10289000054605260CE000F04FFE401B0A2807D92C
:1028A000606A40F40030606284F82060012070BDEE
:1028B00020684068C007EED02068016821F002015E
:1028C000016000F039FE05460CE000F035FE401BCB
:1028D0000A2807D9606A40F40030606284F82060FA
:1028E000012070BD206840688007EED4207E01285A
:1028F0003FD02068016821F080010160607E0128DE
:102900003DD02068016821F040010160A07E0128CF
:102910003BD02068016821F020010160E07E0128A1
:1029200039D02068016841F010010160207F012842
:1029300037D02068016821F008010160607F01281C
:1029400035D02068016821F004010160D4E902015A
:102950000843D4E90412114308436168491E08433F
:102960002168C86100206062012084F820000020F6
:1029700070BD2068016841F080010160BEE72068F9
:10298000016841F040010160C0E72068016841F042
:1029900020010160C2E72068016821F01001016098
:1029A000C4E72068016841F008010160C6E72068BB
:1029B000016841F004010160C8E700002DE9F04121
:1029C00086B00446142101A8FDF705FE3A4B3B4AA8
:1029D000DFF8E08018682168384C03260227401C85
:1029E000103200254FF0090C41452FD11860012805
:1029F00007D1106840F000701060106800F000709F
:102A00000090206840F008002060206800F0080076
:102A100000900196029703950496CDF814C001A981
:102A2000274800F08BFC00220521132001F028F933
:102A3000132001F017F900220521142001F020F9DC
:102A4000142001F00FF906B0BDE8F081DFF87480C2
:102A50004145F8D1116841F080611160116801F0C1
:102A6000806100911860012807D1106840F0007063
:102A70001060106800F000700090206840F00200C4
:102A80002060206800F00200009060200190029712
:102A900003950496CDF814C001A90B4800F04EFC34
:102AA00000220521402001F0EBF8402001F0DAF887
:102AB000C9E70000006400401003002030380240E5
:102AC000000C024000680040000402407047000013
:102AD0002DE9F0410546AD48AD4C854278D104F171
:102AE0001403AC4A00212846FFF721FDA94840F213
:102AF00003230168A1F50070013809D0A1F5007029
:102B0000023805D0994203D0B1F5017F00D0616051
:102B10009F48A1F20322143099420FD009DCB1F58D
:102B2000987F76D0A1F50072013A07D0012A74D1BE
:102B300004E0012A02D0022A6FD14AE0491ECEB237
:102B4000267006EB860101EBC602934911440A8800
:102B5000A1F807204278037842EA03220A80C2786B
:102B6000837842EA03224A804279037942EA0322C7
:102B70008A80807988710888B1F80720801A02B2AB
:102B8000002A02DA4FF4005000E08448104403B2F7
:102B9000002B01DB184600E05842002A01DB1746F3
:102BA00000E05742B84202DA00EE103A01E000EECF
:102BB000102A51F8090FF8EEC00A00EE100A30EEA4
:102BC000800A10EE100A0860761CF0B20BF07EF856
:102BD00023E0491FC9B2617001EB810202EBC1021F
:102BE0006D49343111440A88A1F8072042780378EE
:102BF00042EA03220A80C278837842EA03224A80AA
:102C00004279037942EA03228A808079887104E05C
:102C1000FFE75F4814300CF0BFFB6148854236D1B6
:102C20005B4B5C4A0C331C3200212846FFF77FFCCB
:102C30005848574D1C3005F10C050068021E28D07D
:102C40005549A0F50070063801F14E0171D00128F8
:102C500001D002281BD1D21FD0B2A07000EB80029D
:102C600002EBC00008440188A0F8071069782A78B0
:102C700041EA02210180E978AA7841EA02214180F3
:102C800069792A7941EA02218180A9798171BDE8B7
:102C9000F0812878434C00F00F012160000960604A
:102CA000A878697840EA0120A060E9780A012979CA
:102CB00042EA1112E2606A7901F00F0142EA012151
:102CC00021611021DFED380A9FED380A0CF01CFB62
:102CD00010EE100A0EF010F99FED351B53EC112B7E
:102CE0000DF056FE0DF0DAFBE0610C21F3EE0E0A5A
:102CF000BBEE0E0AE0680CF007FB84ED080A0C211D
:102D0000F2EE040ABAEE040A20690CF0FDFA84ED32
:102D1000090AA87900EE100AB8EE400A84ED0C0A00
:102D2000E87900EE100AB8EE400A84ED0D0AAEE72D
:102D3000FFE7B1F91A00A1F821006A782B7842EA7E
:102D400003224A83EB78AE7843EA06238B836B79C0
:102D50002E7943EA0623CB83AB7981F82030101A11
:102D6000B0F5805F05DDA1680844A0F50050A060C3
:102D70008DE710F5805F05DAA168084400F5005082
:102D8000A06084E7A1680844A06080E7A038002024
:102D900008000020480E0020CD05002000E0FFFFC5
:102DA000C8380020AC040020DA0F4940DA0F49C0CF
:102DB0000734226294A94C4070477047704770B541
:102DC000044694F82000012805D0606A40F40020F1
:102DD0006062012070BD022084F820002068016834
:102DE00021F00101016000F0A7FB05460DE000F0B5
:102DF000A3FB401B0A2808D9606A40F400306062D7
:102E0000052084F82000012070BD20684068C007BC
:102E1000EDD1606270BD70470249884201D104F073
:102E20007DBD7047A03800207047000002498842ED
:102E300001D104F073BD7047A03800207047000036
:102E40000249884201D104F069BD7047A0380020D2
:102E5000704710B50446002C02D0607910B106E02E
:102E6000012010BD00202071204600F005F801204F
:102E70006071002010BD000008B500680649884256
:102E800008D10648016841F480510160006800F4EF
:102E90008050009008BD00000030024030380240F1
:102EA0002DE9F0410446A76D00F046FB054694F875
:102EB00035000026022806D08020606584F8346042
:102EC0000120BDE8F0812068016821F01601016051
:102ED0002068416921F080014161206C08B9A06C33
:102EE00020B12068016821F00801016020680168B4
:102EF00021F0010101600BE000F01EFB401B0528E2
:102F000006D9202034342062032060702670D8E770
:102F100020680068C007EFD134343F2094F82810AF
:102F20008840B8600120607026700020C9E790F8E2
:102F30003510022903D08021416501207047052109
:102F400080F835100068016821F00101016000205F
:102F5000704700002DE9F84304464FF00009CDF812
:102F600000906F484FF416510068B0FBF1F7A56D63
:102F70002E6894F85C00082202FA00F1314210D069
:102F80002068016849070CD5016821F0040101603F
:102F900094F85C0002FA00F1A960606D40F0010055
:102FA000606594F85C104FF0010808FA01F03042B7
:102FB00008D021684969090604D5A860606D40F011
:102FC0000200606594F85C1004208840304208D00C
:102FD00021680968890704D5A860606D40F0040085
:102FE000606594F85C1010208840304220D0216841
:102FF000096809071CD5A8602068016849030CD539
:103000000068000304D4216C91B1204688470FE08A
:10301000A16C69B1204688470AE00168C90503D45C
:10302000016821F008010160216C09B12046884740
:1030300094F85C102020884030424CD02168096808
:10304000C90648D5A86094F8350005280BD020683B
:103050000168490330D50068000328D4616C51B37E
:103060002046884737E02068016821F0160101609A
:103070002068416921F080014161206C08B9A06C91
:1030800020B12068016821F00801016094F85C100B
:103090003F208840A86084F8358084F83490216D02
:1030A00000293BD001B02046BDE8F0430847E16B62
:1030B00009B1204688470EE00168C90507D40168B8
:1030C00021F01001016084F8358084F83490E16BC0
:1030D00009B120468847606D00281FD0606DC00789
:1030E00014D0052084F835002068016821F0010122
:1030F00001600098401C0090B84203D82068006826
:10310000C007F6D184F8358084F83490E16C00294A
:1031100004D001B02046BDE8F0430847BDE8F8837D
:103120008C0300202DE9F041044600F005FA054625
:103130005CB1022084F83500002684F834602068F1
:10314000016821F0010101600DE00120BDE8F0817E
:1031500000F0F2F9401B052805D920206065032006
:1031600084F83500F2E720680068C007F0D12168D4
:103170000A6820480240D4E901031843D4E9033522
:103180002B43184363691843A3691843E369184341
:10319000236A18431043626A042A03D1D4E90B233B
:1031A0001A43104308602068406920F00700656AF0
:1031B00029460543012704290DD1A06A0543E06A89
:1031C00048B12046FEF7FAFC28B14020606584F83B
:1031D00035700120BAE7206845612046FEF7D8FC2B
:1031E00094F85C203F2191408160666584F83570D9
:1031F0000020ABE73F8010F02DE9F04104460025A8
:10320000A66D94F8340001280DD0012084F8340014
:1032100094F835700020012F07D084F8340002257F
:103220002846BDE8F0810220FBE7022784F83570CC
:1032300060652046FEF7FEFC94F85C103F20884055
:10324000B0602068016841F016010160206C20B177
:103250002068016841F0080101602068016841F0C0
:1032600001010160DCE7000070B5044600F064F97C
:103270000546601C02D004480078044400F05CF964
:10328000401BA042FAD370BD8003002010B5234C30
:1032900010281BD020282BD0082837D0012814D183
:1032A00060710CF01FFF01280FD004F10C01A06920
:1032B0000CF04CFAE068002807D019494FF0805014
:1032C0000860BFF34F8FBFF36F8F10BD09200AF066
:1032D000FDFC607840F001006070A07840F00100D3
:1032E000A07020790028F0D0BDE810400AF0ACBEF4
:1032F00008200AF0EBFC207840F0010020702079D3
:103300000028E2D0BDE810400AF09EBE0A200AF074
:10331000DDFCE07840F00100E07010BD48010020C5
:1033200004ED00E010B504490A68024202D00860CA
:10333000FFF7ACFF10BD0000143C01402DE9F84F31
:103340000022DFF89C914FF0010803274FF00F0C8B
:1033500009F1040AA9F1040B08FA02F50B682B40E5
:10336000AB426ED10C7904F00304012C01D0022C85
:1033700015D18668540007FA04FE26EA0E06D1F835
:103380000CE00EFA04FE4EEA060EC0F808E04468AF
:10339000AC430D79C5F300159540254345600C7984
:1033A000E443A40708D0C568540007FA04F6B543FF
:1033B0008E68A6402E43C6600C7904F00304022CEC
:1033C00011D1D40800EB8406356A5407E40E0CFAD8
:1033D00004FE25EA0E05D1F810E00EFA04FE4EEACE
:1033E000050EC6F820E00568540007FA04F6B54358
:1033F0000E7906F00306A6402E4306604C6814F4CE
:10340000403F67D0374C256845F4804525602468E7
:1034100004F480440094344C22F003052E19D6F8AD
:10342000085894074FEA147E0CFA0EF4A5432F4C6B
:10343000A04201D1002424E02D4CA04202D101245D
:103440001FE047E02B4CA04201D1022419E02A4C96
:10345000A04201D1032414E0284CA04201D104244D
:103460000FE0274CA04201D105240AE0254CA042E0
:1034700001D1062405E0244CA04201D1072400E03C
:10348000082404FA0EF42C43C6F80848D9F8004082
:103490009C434D68ED0200D51C43C9F80040DAF8A2
:1034A00000409C434D68AD0200D51C43CAF8004063
:1034B000DBF800409C434D68AD0300D51C43CBF8BE
:1034C0000040074D083D2C689C434E68F60300D52C
:1034D0001C432C60521C102AFFF43EAFBDE8F88F4D
:1034E000083C0140443802400030014000000240E6
:1034F0000004024000080240000C0240001002409C
:103500000014024000180240001C024000690842FA
:1035100001D00120704700207047426921EA020370
:103520000A4043EA024181617047002A01D081616B
:103530007047090481617047014880687047000046
:103540008003002070B50446002C04D094F83D00A0
:10355000002510B106E0012070BD84F83C502046E3
:1035600000F0ACFA242084F83D002068016821F0C6
:10357000010101602068016841F400410160206898
:10358000016821F40041016001F064F94F4B61686A
:10359000994203D84E49884203D304E04D498842FA
:1035A00001D2012070BD4C49B0FBF1F12268566890
:1035B00026F03F060E43566062689A4201D8491CC5
:1035C00007E04FF4967251434FF47A72B1FBF2F177
:1035D000491C2268166A26F03F0631431162616871
:1035E000994210D84900401EB0FBF1F2521CC2F3C0
:1035F0000B02042A01D2042022E0B0FBF1F0401CAF
:10360000C0F30B001CE0A268F2B301EBC10303EBB3
:103610000116431EB3FBF6F35B1C43F480431B050A
:1036200049D092B301EBC10202EB0111401EB0FB85
:10363000F1F0401CC0F30B0040F4804040F4004027
:103640002168CA694CF6FF739A431043C861D4E9F4
:10365000071001432068026822F0C0021143016094
:10366000D4E9030101432068826848F2FF339A439A
:1036700011438160D4E9051001432068C26822F03B
:10368000FF021143C16001E00EE016E0206801680E
:1036900041F0010101602564202084F83D0025638C
:1036A00084F83E50002070BD01EB4106431EB3FB81
:1036B000F6F35B1CB3E70120C2E701EB4101401EBA
:1036C000B0FBF1F0401CC0F30B00B7E7A08601008F
:1036D00080841E0000093D0040420F002DE9FF4F8D
:1036E00083B00446DDE911988A469346109FFFF7A0
:1036F00023FF054694F83D00202803D0022007B0A0
:10370000BDE8F08F1923012298492046009502F068
:103710001FFD08B10220F2E794F83C00012807D011
:10372000012084F83C0020680168C90702D005E048
:103730000220E4E7016841F00101016020680168AE
:1037400021F400610160222084F83D00402084F8CB
:103750003E00002626646762A4F82A90608D2085CA
:103760008348E062CDE900855A4651462046069BD3
:1037700002F0C0FB08B10120C1E7208D48B101284B
:1037800010D002281CD02068416980690290794FCE
:10379000E1E02068416981690291016841F40071AA
:1037A0000160F4E72068016821F48061016020680D
:1037B000416981690291016841F400710160E6E7A5
:1037C0002068016821F4806101602068016841F48B
:1037D000006101602068416980690290D7E7032891
:1037E0007ED801280BD002281FD04346002239463C
:1037F0002046009502F0ACFCF0B301207FE72A469A
:103800004146204602F05EFD08B1012077E72068BE
:103810000069616A0870606A401C6062208D401E09
:103820002085608D401E608595E043460022394624
:103830002046009502F08CFC08B101205FE720686B
:10384000016841F40071016020680069616A0870D4
:10385000606A401C6062218D491E2185618D491E70
:103860006185216809690170606A401C6062208D71
:10387000401E2085608D00E002E0401E60856AE009
:103880002068016821F48061016020680069616A34
:103890000870606A401C6062208D401E2085608D2B
:1038A000401E60854346002239462046009502F0BE
:1038B0004FFC08B1012022E72068016841F4007143
:1038C000016020680069616A0870606A401C60627B
:1038D000218D491E2185618D491E6185216800E089
:1038E0000BE009690170606A401C6062208D401E17
:1038F0002085608D401E60852DE02A464146204689
:1039000002F0E0FC08B10120F9E620680069616A74
:103910000870606A401C6062208D401E81B2218563
:10392000608D401E608520684269D243520712D4E0
:10393000032903D1016821F48061016020680069D6
:10394000616A0870606A401C6062208D401E20859C
:10395000608D401E6085208D00287FF440AF2020C0
:103960003C346070A67026700020C8E6020010008B
:103970000000FFFF040001002DE9FF4F83B0044663
:10398000DDE911988A469346109DFFF7D5FD06465E
:1039900094F83D00202803D0022007B0BDE8F08F46
:1039A0001923012243492046009602F0D1FB08B1B9
:1039B0000220F2E794F83C00012807D0012084F8A7
:1039C0003C0020680168C90702D005E00220E4E756
:1039D000016841F0010101602068016821F4006183
:1039E0000160212084F83D00402084F83E0000273B
:1039F00027646562A4F82A90608D20852E48E062D5
:103A0000CDE900865A4651462046069B02F012FB3D
:103A100080B30120C1E732464146204602F08DFCCA
:103A200048B1206C042804D12068016841F4007179
:103A300001600120B1E7606A216800780861656A69
:103A40006D1C6562208D401E80B22085618D491EEF
:103A5000618523685969C94349070BD450B1287857
:103A60001861606A401C6062208D401E2085608D58
:103A7000401E6085208D0028CDD13246414620462B
:103A800002F03AFB48B1206C042804D12068016898
:103A900041F40071016001207FE71F3454F81F0CCE
:103AA000016841F4007101602020A077E777677713
:103AB000002072E7020010000000FFFFF0B587B0A1
:103AC0000446142102A8FCF786FD1D49206888429F
:103AD00033D11C48016841F004010160016801F024
:103AE00004010191016841F001010160006800F0EA
:103AF000010001904FF400700290122703970124F7
:103B00000494032605960425069502A90E48FFF79E
:103B100015FC20020290039704940596069502A9CD
:103B20000A48FFF70BFC07481030016841F4000118
:103B30000160006800F40000019007B0F0BD0000D3
:103B4000005C0040303802400008024000000240A3
:103B50000248816802781144816070478003002028
:103B600010B50B48016841F400710160016841F42F
:103B700080610160016841F480710160032000F000
:103B80009FF80F2000F006F800F050F8002010BD5C
:103B9000003C024030B587B0054600241F4801684C
:103BA00041F001010160006800F00100009001A9EE
:103BB00002A800F02BFE0598B0B100F04BFE4000CB
:103BC0001749B0FBF1F1491E16484FF080420260E0
:103BD00040F2E732C260416004618460846101F0B8
:103BE000C9FA04461CB115E000F034FEE8E70D48C0
:103BF00001F02EFB04466CB91C2000F033F8102DA8
:103C000007D2002229461C2000F03AF80648056039
:103C100000E0012407B0204630BD000040380240DB
:103C200040420F00A45A00208403002082B00C48B8
:103C3000016841F480410160006800F48040019017
:103C40000748001F016841F080510160006800F0E2
:103C50008050019000220F21901E02B000F010B899
:103C600044380240002809DB00F01F020121914086
:103C70004009800000F1E020C0F80011704700000A
:103C8000F0B40D460D4B1B68C3F30223C3F10704C8
:103C9000042C00D90424191D072901D2002300E0B7
:103CA000DB1E012606FA04F1491E294099409E4078
:103CB000761E16403143F0BC08F08DBD0CED00E0DF
:103CC00000F00701054A10684FF6FF03184040EA6C
:103CD0000120034908431060704700000CED00E02C
:103CE0000000FA057047006841620020704770B517
:103CF0000368586A002907D09C6A00EB144400202E
:103D00004FF48275491E0AE040EA024098620DE0D5
:103D100005EB80069E5904EB1644401CC0B2884255
:103D2000F6D305EB810144EA02405850002070BDF3
:103D3000D0F8E00407F02ABB01EBC10200EB8202DD
:103D4000D0F8E004126A07F04BBA01EBC10200EBB5
:103D50008202D0F8E004D2F8602207F0AFBAD0F8BF
:103D6000E00407F015BB0A0601F00F0101EBC101E9
:103D700000EB810101D5143101E001F515710068F6
:103D800008F076BA70B504460B0601F00F0000EBA0
:103D9000C00104EB81014FF001024FF0000502D594
:103DA00014314A7002E001F515714D70087094F8F5
:103DB0009404012808D084F89424206807F06CFF4C
:103DC00084F89454002070BD022070BD70B5044684
:103DD00001F00F002279904201D9012070BD0B063D
:103DE00001F00F0101EBC10104EB81014FF0010271
:103DF0004FF0000502D514314A7002E001F515714B
:103E00004D708D70087094F89404012808D084F8DF
:103E10009424206808F0AAF884F89454002070BD17
:103E2000022070BD01F00F0101EBC10100EB810028
:103E3000D0F8680270472DE9F04104460F0601F002
:103E40000F0000EBC00104EB81014FF001064FF0C1
:103E5000000502D514314E7002E001F515714D7068
:103E60000870C2F30A028A600B714A7802B1488373
:103E7000022B00D14D7194F89404012809D084F8E4
:103E80009464206807F052FE284684F89454BDE8F4
:103E9000F0810220FBE710B501F00F0404EBC40130
:103EA00000EB810101F51571CA600B6100234B61C4
:103EB0004B700C708379012B00D1CA618279006844
:103EC00008F0ACF8002010BD70B504460D4621790D
:103ED00005F00F00884201D9012070BD29064FF07E
:103EE00000064FF0010206D500EBC00104EB810192
:103EF00014314A7006E005EBC50104EB810101F5C0
:103F000015714E708A70087094F89404012807D0D7
:103F100084F89424206808F055F8280702D007E0B8
:103F2000022070BDA17904F29C42206807F0F4FFE2
:103F300084F89464002070BD10B501F00F0404EB08
:103F4000C40100EB81011431CA600B6100234B6195
:103F500001234B700C708379012B00D1CA618279E7
:103F6000006808F05BF8002010BD2DE9F84F04460A
:103F70002568284608F026FA00287ED1206808F037
:103F80004DFA002879D0D5F80808C0F30D20C4F800
:103F9000D404206808F042FA800704D520684169FB
:103FA00001F002014161206808F038FAC10604F20C
:103FB0009C40009035D52068816921F01001816115
:103FC0002F6A07F00F0000EBC00004EB800606F537
:103FD0001576C7F34340022802D0062812D01BE012
:103FE00047F6F070074217D0C7F30A121746284663
:103FF000F16808F017FAF0683844F06070693844E6
:10400000706109E008222846009908F00BFA7069EF
:10401000C7F30A11084470612068816941F01001FA
:104020008161206808F0FAF900034FF0080B4FF0A7
:1040300000094FF001085ED50026206808F0CDF990
:10404000824655E05FEACA704FD0F1B2206808F0AE
:10405000DDF90746F80707D005EB4610C0F8088BD6
:104060003146204603F014F9380709D505EB461010
:10407000C0F808BB3146204600E0F8E103F0E4F860
:10408000F80604D505EB46101021C0F8081BB80748
:104090001CD56869000605D5D5F8040840F4806190
:1040A000C5F8041806EBC60004EB800000F5157097
:1040B000C178012905D180F80390F1B2204600F0C3
:1040C000DCF905EB46110220C1F8080BB80604D54F
:1040D00005EB46102021C0F8081BB80405D505EBF8
:1040E00046104FF40051C0F8081B761C4FEA5A0ADC
:1040F000BAF1000FA6D1206808F090F940036CD502
:10410000206808F063F98246002663E05FEACA701F
:104110005DD0F1B2206808F067F90746F80723D0B0
:1041200006F00F0108FA01F0D5F834188143C5F8FC
:10413000341805EB4610C0F80889A07901280FD182
:1041400006EBC60004EB8000D0E9072111440162B0
:1041500036B9606A20B920680121009A07F0DCFEB8
:10416000F1B22046FFF7E8FD380703D505EB46100E
:10417000C0F808B9F80604D505EB46101021C0F8C0
:104180000819780604D505EB46104021C0F8081937
:10419000B80716D53146284608F0E2F806EBC60007
:1041A00004EB80001430C178012905D180F8039018
:1041B000F1B2204600F05DF905EB46110220C1F88E
:1041C0000809380603D53146204603F0D3F8761C9B
:1041D0004FEA5A0ABAF1000F98D1206808F01EF988
:1041E000002811DAD5F8040820F00101C5F80418F8
:1041F00094F8CC04012829D0204600F006FA206863
:10420000416901F000414161206808F007F90005AB
:104210000BD5D5F80808C00702D0204600F038FAC0
:104220002068416901F400614161206808F0F6F8F6
:10423000C00461D5D5F8040820F00101C5F80418C0
:104240001021206808F08CF8002120E084F8CC943C
:1042500000212046FFF746FDD1E705EB411000F5B0
:1042600010604FF67F328260036823F4001303600E
:10427000C0F80822D0F8002222F40012C0F8002270
:10428000D0F8002242F00062C0F80022491C2079D8
:104290008842E2D8D5F81C0840F00111C5F81C1876
:1042A000E07B60B1D5F8840840F00B01C5F88418B4
:1042B000D5F8440840F00B01C5F844180CE0D5F8D7
:1042C000140842F22B010843C5F81408D5F8100869
:1042D00040F00B01C5F81018D5F8000820F4FE6175
:1042E000C5F80018A1792068009A07F015FE20682B
:1042F000416901F480514161206808F08FF8800421
:1043000015D5206807F054FC206808F04BF8E071E0
:1043100000F09AFA0146E279206808F0E9F82046B0
:1043200000F05CF92068416901F4005141612068A6
:1043300008F074F8000707D5204600F06AF92068F5
:10434000416901F008014161206808F067F8000642
:1043500015D5A86920F08001A96101260CE006EBC3
:10436000C60004EB800090F85702012803D1F1B297
:104370002046FFF7F8FC761C2079B042EFD8206881
:1043800008F04CF8C0021FD5012615E005EB4610D9
:10439000D0F8001906EBC60004EB8000027E012A6B
:1043A00009D1002907DA80F81780F0B240F08001C7
:1043B0002046FFF7D8FC761C2079B042E6D820686A
:1043C000416901F480114161206808F027F88002FA
:1043D00030D5012026E005EB4011D1F8001B00EBA1
:1043E000C00204EB820292F85832012B19D1002945
:1043F00017DA94F8D43401F4803103F001039942C0
:104400000FD182F85782A96941F08002AA616969D7
:10441000090606D4D5F8040840F40070C5F804086D
:1044200003E0401C21798142D5D82068416901F41C
:1044300000114161206807F0F1FF400007D52046D8
:10444000FFF776FC2068416901F0804141612068F6
:1044500007F0E4FF40070AD520684568680702D5E1
:104460002046FFF77CFC2068416829434160BDE895
:10447000F88FD0F8E00406F0DEBFD0F8E00406F0D4
:10448000EFBFF8B50446002C05D0266894F89504D3
:10449000002510B106E00120F8BD84F894542046B0
:1044A00000F05AF8032084F89504B6F1A04F00D12B
:1044B000A571206807F02AFD207C8DF8000094E8A3
:1044C0000F0007F083FB022618B184F895640120E1
:1044D000F8BD0021206807F0C4FF18B184F8956486
:1044E0000120F8BD002101270CE001EBC10004EB25
:1044F000800047750175C1850576C5610562456215
:10450000491CC9B220798842EFD800210DE001EBA7
:10451000C10004EB800000F5157045700170057155
:104520008560C5600561491CC9B220798842EED812
:10453000207C8DF8000094E80F0007F02DFC18B1E6
:1045400084F895640120F8BD657484F8957420683A
:1045500007F014FC0020F8BD10B586B00446142105
:1045600001A8FCF738F82068B0F1A04F2FD1002146
:104570001848026842F001020260006800F0010081
:1045800000904FF4C050019002200290039103204C
:1045900004900A20059001A90F48FEF7CFFE0D48B0
:1045A000001D016841F0800101600A481430016873
:1045B00041F480410160006800F4804000900022D6
:1045C00005214320FFF75CFB4320FFF74BFB06B0C0
:1045D00010BD0000303802400000024070B50446B3
:1045E0000125E07900280ED0022801D0FDF71EFD3C
:1045F0002946D4F8E00406F0A4FFD4F8E004BDE8AE
:10460000704006F057BF0025F2E7D0F8E00406F04E
:1046100081BFD0F8E00406F087BF10B5044694F8D7
:10462000940401280AD0012084F89404617420685D
:1046300007F047FF002084F8940410BD022010BD4D
:10464000D0F8E02400F29C41104606F086BF10B579
:104650000446206894F89414012909D0012184F8B3
:104660009414C168490609D5617B012902D005E08F
:10467000022010BD816B41F480318163206807F016
:1046800049FE206807F06CFB002084F8940410BDFC
:1046900010B50446D4F8E00406F0A3FF2068D0F873
:1046A000001E41F00101C0F8001EE07A002804D08D
:1046B0000248016841F00601016010BD10ED00E004
:1046C0002DE9F04704460D46002C13D0DFF8289161
:1046D000D9F80000EFB200F00700A8420CD289F828
:1046E0000070D9F8000000F00700A84204D00120B3
:1046F000BDE8F0870120FBE72068404E810712D516
:10470000400703D5306840F4E0503060207800075F
:1047100003D5306840F4604030603068A16820F014
:10472000F000084330602078C00731D0334960681A
:104730000839012808D002280BD0032809D00968BD
:1047400089070BD40120D3E70968890306D4012027
:10475000CEE70968890101D40120C9E7316821F059
:10476000030101433160FEF7E7FE804641F2883ADB
:1047700007E0FEF7E1FEA0EB0800504501D9032059
:10478000B6E73068616800F00C00B0EB810FF0D143
:10479000D9F8000000F00700A84209D989F8007094
:1047A000D9F8000000F00700A84201D001209FE7DF
:1047B0002078400705D53068E16820F4E0500843D0
:1047C00030602078000706D53068216920F4604009
:1047D00040EAC100306000F05DF83168084AC1F37A
:1047E0000311515CC8400749086007480068FFF79B
:1047F000D1F900207CE70000003C0240083802406C
:10480000C81201088C030020840300200F220260DC
:104810000B4A136803F003034360136803F0F003CB
:104820008360136803F4E053C360126802F46042CB
:10483000D20802610348006800F007000860704772
:1048400008380240003C0240014800687047000000
:104850008C03002000B5FFF7F7FF04490968044AFC
:10486000C1F38221515CC84000BD000008380240FD
:10487000D812010800B5FFF7E7FF04490968044AA8
:10488000C1F34231515CC84000BD0000083802400D
:10489000D812010810B51748006810F00C0116482E
:1048A00016D0164B042912D0082911D1114C241FFF
:1048B000216801F03F02216849020AD52068C0F34F
:1048C0008810A0FB03010023FBF74EFD09E018460A
:1048D00010BD21680023C1F38811A1FB0001FBF783
:1048E00043FD2168C1F30141491C4900B0FBF1F0CF
:1048F00010BD0000083802400024F400001BB7007F
:104900002DE9F84F0446002C13D02078DFF8A0835F
:10491000C007A8F1040556D008F104000168C1F3EE
:10492000810101290CD00068C0F38100022803D066
:104930000DE00120BDE8F88FD8F80000400206D550
:10494000286880033FD5606870BB0120F2E760688B
:10495000B0F5803F10D0B0F5A02F12D0286820F419
:1049600080302860286820F4802028606068E0B1EA
:10497000FEF7E2FD064614E0286840F48030286027
:10498000F4E7286840F480202860286840F48030EC
:104990002860EBE7FEF7D0FD801B642801D90320D7
:1049A000C8E728688003F5D50DE0FEF7C5FD06468B
:1049B00006E0FEF7C1FD801B642801D90320B9E79A
:1049C00028688003F5D42078BA4F80074FF000099B
:1049D00048D5B748001D016811F00C0F08D00068D9
:1049E000C0F38100022813D1D8F8000040020FD490
:1049F0002868800704D5E068012801D0012099E7E4
:104A00002868216920F0F80040EAC100286029E008
:104A1000E068B8B101203860FEF78EFD064606E07A
:104A2000FEF78AFD801B022801D9032082E728684F
:104A30008007F5D52868216920F0F80040EAC10018
:104A400028600FE0C7F80090FEF776FD064606E006
:104A5000FEF772FD801B022801D903206AE728684F
:104A60008007F5D42078000729D5DFF844A29248C2
:104A700061690AF1700A89B101210160FEF75CFDEC
:104A8000064606E0FEF758FD801B022801D90320E8
:104A900050E7DAF800008007F4D510E0C0F8009085
:104AA000FEF74AFD064606E0FEF746FD801B02289B
:104AB00001D903203EE7DAF800008007F4D420781B
:104AC000400778D54FF0000A79483C300068C000B4
:104AD0000BD477483C30016841F080510160006898
:104AE00000F0805000904FF0010ADFF8D0B1DBF801
:104AF0000000C00514D4DBF8000040F48070CBF84F
:104B00000000FEF719FD064606E0FEF715FD801BC6
:104B1000022801D903200DE7DBF80000C005F4D519
:104B2000634EA0686C3601280FD0052812D030687B
:104B300020F001003060306820F004003060A06890
:104B4000F8B1FEF7F9FC834617E0306840F0010049
:104B50003060F4E7306840F004003060306840F0C6
:104B600001003060EBE7FEF7E7FCA0EB0B0141F240
:104B70008830814201D90320DCE630688007F2D515
:104B800010E0FEF7D9FC834609E0FEF7D5FCA0EB68
:104B90000B0141F28830814201D90320CAE6306816
:104BA0008007F2D4BAF1010F05D141483C300168C9
:104BB00021F080510160A069C0B33D49091D096819
:104BC0004FF0FF36C1F38101022946D0022805D0FB
:104BD000C7F86090FEF7B0FC04463AE0C7F8609072
:104BE000FEF7AAFC814607E0FEF7A6FCA0EB090051
:104BF000022801D903209DE628688001F4D4D4E975
:104C000007010843616AA26A890106EB520241EA80
:104C10000241084394F82C1040EA0160C8F80000F3
:104C200001203866FEF788FC044607E03DE0FEF709
:104C300083FC001B022801D903207BE62868800141
:104C4000F5D532E0FEF778FC001B022801D90320DD
:104C500070E628688001F5D427E0012823D0D8F831
:104C60000000E26900F4800191421AD1226A00F04A
:104C70003F01914215D147F6C071626A0140B1EB24
:104C8000821F0ED1A26A00F4403106EB5202B1EB52
:104C9000024F06D194F82C1000F07060B0EB016F59
:104CA00003D0012046E6012044E6002042E6000051
:104CB0000438024000004742800E47420070004026
:104CC00070B50446002C09D0606A002540B125610A
:104CD0006561A56294F8510040B10CE0012070BDFF
:104CE0006068B0F5827FF4D0E561F2E784F8505057
:104CF000204600F045F8022084F851002068016841
:104D000021F040010160A088218900F4827001F443
:104D100004410843A18901F400610843217C01F0AA
:104D200002010843217D01F001010843218B01F4B8
:104D300000710843217F01F03801084394F82010E6
:104D400001F080010843218D01F4005108432168DE
:104D50000860A069042101EA104094F8241001F0D1
:104D600010010843216848602068C16921F400618E
:104D7000C1616565012084F85100002070BD00000C
:104D80002DE9F04387B00546142102A8FBF723FC68
:104D90003949286888426CD100263848016841F4B6
:104DA00080510160006800F480500190334814384D
:104DB000016841F002010160016801F00201019106
:104DC000016841F001010160006800F001000190FC
:104DD000182002904FF00208CDF80C804FF0010926
:104DE000CDF81090032405940527069702A92448BE
:104DF000FEF7A4FA80200290CDF80C80CDF8109038
:104E00000594069702A91F48FEF798FA1F4C1E4802
:104E100020604FF0C068C4F80480A660E660071503
:104E200027616661A661E6614FF4403020626662E8
:104E30002046FEF777F908B1FDF7F8F8EC64A563B2
:104E40001148124C183060342060C4F804804020AF
:104E5000A060E66027616661A661E661C00220622B
:104E600066622046FEF75EF908B1FDF7DFF8AC6434
:104E7000A56307B0BDE8F08300300140443802402C
:104E80000004024000000240406402409C390020BF
:104E90002DE9FF4F81B004460E9E93461F46012523
:104EA000FEF74AFB804694F85100616801280AD059
:104EB000B1F5827F03D1A16809B9042803D002208B
:104EC00005B0BDE8F08F0298A0B3BBF1000F32D05F
:104ED000380030D094F8500001282ED04FF0010A4D
:104EE00084F850A094F85100042802D0052084F8DA
:104EF00051004FF00009C4F85490C4F838B0E78767
:104F0000A78702982063E786A786C4F84090C4F874
:104F1000449020680168490603D4016841F04001CB
:104F20000160E068B0F5006F09D06068F0B3012F50
:104F30004DD082E0FFE70120C2E70220C0E76068B1
:104F400008B1012F3CD1206B21680088C860206B1C
:104F5000801C2063E08E401EE08631E0206881687E
:104F600089070DD5E18E59B1012D09D1216B098831
:104F7000C160206B801C2063E08E401EE08600250F
:104F800020688168C9070BD0E18F49B1C068A16B67
:104F90000880A06B801CA063E08F401EE087012585
:104FA000FEF7CAFAA0EB0800B04200E00FE007D31A
:104FB000701C05D084F851A084F8509003207FE73E
:104FC000E08E0028CAD1E08F0028C7D13BE0206BDB
:104FD000216800780873206B401C2063E08E401E1F
:104FE000E0862AE02068816889070DD5E18E59B1F5
:104FF000012D09D1216B09780173206B401C2063BE
:10500000E08E401EE086002520688168C9070BD02D
:10501000E18F49B1C068A16B0870A06B401CA06310
:10502000E08F401EE0870125FEF786FAA0EB08001E
:10503000B04201D3701C12D18EB1E08E0028D1D1C4
:10504000E08F0028CED142463146204604F06CFB6A
:1050500058B12020606584F85090012030E784F832
:1050600051A084F8509003202AE7A06818B920685E
:10507000C1688068009084F851A084F85090606DF9
:1050800008B101201CE700201AE77047704710B5EF
:1050900090F83C20012A22D0012280F83C20CA68E6
:1050A00000238C6822F4407222434C6822F4806210
:1050B00022430C6822F4006222430C6922F48052DD
:1050C00022434C6922F400522243C96922F48042EF
:1050D0000A4301684A6480F83C30002010BD022079
:1050E00010BD000070B590F83C20012A31D0012697
:1050F00080F83C60022280F83D2002685468936882
:1051000024F070050C682C435460134C0268A242D2
:1051100014D0B2F1804F11D0104CA2420ED0104CDE
:10512000A2420BD00F4CA24208D00F4CA24205D095
:105130000E4CA24202D00E4CA24204D123F08003B6
:105140004968194391603C3046700021017000208D
:1051500070BD022070BD000000000140000400404E
:1051600000080040000C00400004014000400140E5
:105170000018004010B50446002C03D094F83D0000
:1051800010B107E0012010BD002084F83C0020464B
:1051900000F016F8022084F83D00211D206804F07C
:1051A0008FFE01203D3460726070A070E07020714D
:1051B0006071A071E07120722070002010BD0000AD
:1051C00008B500681D4A1E49904208D1086840F0A1
:1051D00002000860086800F00200009008BD194A4B
:1051E000904208D1086840F004000860086800F0A8
:1051F0000400009008BD144A90420AD11048001DD6
:10520000016841F400310160006800F40030009052
:1052100008BD0E4A9042FBD1086840F480700860D7
:10522000086800F480700090002205212D20FEF710
:1052300027FDBDE808402D20FEF714BD0004004006
:105240004038024000080040004401400020004077
:1052500090F83D10012901D001207047022180F80B
:105260003D100168CA6842F00102CA600068144932
:10527000884214D0B0F1804F11D0124988420ED02C
:10528000114988420BD01149884208D01049884200
:1052900005D01049884202D00F49884209D181685F
:1052A00001F00701062908D0016841F00101016001
:1052B00003E0016841F00101016000207047000037
:1052C000000001400004004000080040000C0040C5
:1052D00000040140004001400018004070B5044641
:1052E000002594F83C00012817D0012684F83C6082
:1052F000022084F83D002068826822F0770222F4C0
:105300007F4282600868502838D00DDC202853D0B6
:1053100005DC90B3102811D14EE0022070BD30287A
:105320004AD040280AD13DE0602831D070280CD006
:10533000B0F5805F03D0B0F5005F12D001253C349A
:10534000667000202070284670BDCB68D1E901212D
:10535000206804F030FE2068816841F077018160A8
:10536000EDE7CB68D1E90121206804F024FE206834
:10537000816841F480418160E1E71DE0CA684968C5
:10538000206804F0FBFE5021206804F01EFED6E7E2
:10539000CA684968206804F002FF6021206804F0B0
:1053A00014FECCE7CA684968206804F0E7FE402193
:1053B000206804F00AFEC2E722680146104604F0A5
:1053C00004FEBCE770472DE9F04104462068C5683B
:1053D00006694FF00007B10714D5A90712D5F91EC9
:1053E00001610120207720688069800703D0204672
:1053F000FFF7E8FF05E0204600F022F9204600F024
:10540000DBF92777700717D5680715D521686FF086
:1054100004000861022020772068806910F4407F32
:1054200003D02046FFF7CEFF05E0204600F008F944
:10543000204600F0C1F92777300716D5280714D584
:1054400021686FF008000861042020772068C06997
:10545000800703D02046FFF7B5FF05E0204600F0A7
:10546000EFF8204600F0A8F92777F00617D5E806F0
:1054700015D521686FF0100008610820207720689A
:10548000C06910F4407F03D02046FFF79BFF05E082
:10549000204600F0D5F8204600F08EF92777F00777
:1054A00008D0E80706D021686FF0010008612046A7
:1054B00000F0F2F9300608D5280606D521686FF00D
:1054C000800008612046FFF7E0FD700608D56806F9
:1054D00006D521686FF040000861204600F0E3F92E
:1054E000B0060AD5A80608D521686FF0200008612B
:1054F0002046BDE8F041FFF7C9BDBDE8F0810000DE
:105500002DE9F04186B00446142101A8FBF763F8A9
:105510002068404B022400263F49012503226703EF
:10552000984220D1086840F010000860086800F038
:10553000100000904FF428500190029403950492BB
:105540000595DFF8D88001A94046FDF7F7FE0197E1
:10555000029403960496059501A94046FDF7EEFED8
:1055600006B0BDE8F0812E4B984212D1086840F099
:1055700004000860086800F004000090981501908D
:10558000029403950492059401A92648FDF7D6FEDE
:10559000E6E7254B984211D1086840F00800086002
:1055A000086800F0080000900197029403950492A7
:1055B000059401A91D48FDF7C1FED1E71C4B984297
:1055C00012D1086840F480700860086800F48070A8
:1055D0000090C0200190029403960496059201A9C0
:1055E0001448FDF7ABFEBBE7134B9842B8D10868EF
:1055F00040F020000860086800F020000090402083
:105600000190029403950492059201A90B48FDF7BD
:1056100095FEA5E70000014030380240001002402E
:10562000000400400008024000080040000C024056
:1056300000040140002002400044014000140240E8
:10564000704770B504460D46002694F83C000128CA
:105650000FD0012084F83C006AB1042A1FD0082A28
:1056600032D00C2A44D00126002084F83C00304679
:1056700070BD022070BD2946206804F0AFFC206890
:10568000816941F0080181612068816921F004018C
:105690008161206881692A6911438161E4E72946B3
:1056A000206804F0CFFC2068816941F400618161C9
:1056B0002068816921F480618161206881692A699B
:1056C00041EA02218161CFE72946206804F0F4FC19
:1056D0002068C16941F00801C1612068C16921F0F9
:1056E0000401C1612068C1692A691143C161BBE736
:1056F0002946206804F018FD2068C16941F4006162
:10570000C1612068C16921F48061C1612068C169FB
:105710002A6941EA0221C161A6E710B50446002CBE
:1057200003D094F83D0010B107E0012010BD002027
:1057300084F83C00204600F015F8022084F83D0073
:10574000211D206804F0BCFB01203D3460726070B4
:10575000A070E07020716071A071E0712072207003
:10576000002010BD08B50068104A1149904208D1C8
:10577000086840F001000860086800F0010000902F
:1057800008BD0C4A9042FBD1086840F00200086056
:10579000086800F002000090002205212D20FEF78D
:1057A0006FFABDE808402D20FEF75CBA000001400A
:1057B00044380240000401407047000010B5044620
:1057C000002909D004290AD008290BD094F84100F7
:1057D00001280AD0012010BD94F83E00F8E794F8A3
:1057E0003F00F5E794F84000F2E70220A9B304294E
:1057F00037D0082938D084F841000122206804F00D
:10580000CDFB1E4920681E4A884201D0904203D138
:10581000436C43F4004343642068884213D0B0F1E2
:10582000804F10D0174988420DD0174988420AD0BE
:105830001649884207D0904205D01549884202D0C7
:105840001449884213D1816801F00701062912D05A
:10585000016841F0010101600DE0FFE784F83E00BE
:10586000CBE784F83F00C8E784F84000C5E701684B
:1058700041F001010160002010BD00000000014066
:10588000000401400004004000080040000C0040FB
:1058900000400140001800400068B0F1804F01D185
:1058A000FEF756B97047704770477047F8B5044621
:1058B00022681068D168536900F00F06002E08D1E5
:1058C000850606D58D0604D52046BDE8F84004F0CF
:1058D0000DBD0025002E66D003F0010601F490777F
:1058E000374360D0C20705D0CA0503D5626C42F0C9
:1058F00001026264420705D5DA0703D0626C42F008
:1059000002026264820705D5DA0703D0626C42F0B6
:1059100004026264020707D501F02002324303D07B
:10592000626C42F008026264626C002A31D0800628
:1059300004D5880602D5204604F0D8FC20684069CA
:10594000C0F38010616C090700D438B3204604F01E
:105950008BFC2068406940061CD52068143050E854
:10596000001F21F0400140E80012002AF5D1E06B51
:1059700060B159490165E06BFDF7D9FA002808D0FC
:10598000E06B016D01B0BDE8F04008472046FFF72D
:105990008CFFF8BD2046FFF788FFF8BD2046FFF7D3
:1059A00084FF6564F8BD236B012B7DD1C3067BD5D5
:1059B000CB067FD510685068009050694FF02003E7
:1059C00040064FF0020644D5E16B0868406880B29B
:1059D0000028E7D0A28D8242E4D9E085C869B0F5FD
:1059E000807F2DD020680C3050E8001F21F480719A
:1059F00040E80012002AF5D12068143050E8001F5A
:105A000021F0010140E80012002AF5D1206814308D
:105A100050E8001F21F0400140E80012002AF5D1B3
:105A200084F84230256320680C3050E8001F21F0D4
:105A3000100140E80012002AF5D1E06BFDF730FAC2
:105A40006663A08DE18D401A81B22046FFF72CFFDE
:105A5000F8BDA08DE18D401A81B2E08D0028F7D00D
:105A60000029F5D020680C3050E8002F22F4907205
:105A700040E80027002FF5D12068143050E8002FAF
:105A800022F0010240E80027002FF5D184F84230CF
:105A9000256320680C3050E8002F22F0100240E807
:105AA0000023002BF5D100E004E066632046FFF7F9
:105AB000FBFEF8BD020606D50A0604D52046BDE861
:105AC000F84004F001BD4006F3D54806F1D5204664
:105AD000BDE8F84004F0EFBBC3A1000870B5044670
