:020000040800F2
:10000000B8F5002029030008C36B0008A15B0008B5
:10001000C16B0008030F0008F9BF000800000000D2
:10002000000000000000000000000000690200085D
:10003000091A000800000000C50200082597000802
:100040004303000843030008430300084303000878
:100050004303000843030008311B00084303000862
:1000600043030008371B00083D1B0008430300083A
:10007000ED1300084303000843030008430300088E
:100080004303000843030008430300084303000838
:10009000050F00084303000843030008431B000842
:1000A0004303000843030008430300084303000818
:1000B000F5970008430300084303000843030008C2
:1000C00043030008430300084303000843030008F8
:1000D00043030008759E000843030008819E000842
:1000E00043030008430300084303000843030008D8
:1000F0004303000801980008430300084303000875
:1001000043030008430300084303000843030008B7
:1001100043030008430300084303000843030008A7
:1001200043030008F913000805140008C518000867
:100130004303000843030008430300084303000887
:10014000110F00084303000843030008556E000820
:10015000D1180008DD180008E9180008559F0008AC
:100160004303000843030008430300084303000857
:100170004303000843030008430300080000000095
:10018000430300084303000800F002F800F05CF8A5
:100190000AA090E8000C82448344AAF10107DA45E2
:1001A00001D100F051F8AFF2090EBAE80F0013F0D8
:1001B000010F18BFFB1A43F001031847E01B0100B1
:1001C000001C01000A444FF0000C10F8013B13F032
:1001D000070408BF10F8014B1D1108BF10F8015BA0
:1001E000641E05D010F8016B641E01F8016BF9D193
:1001F00013F0080F1EBF10F8014BAD1C0C1B09D1EA
:100200006D1E58BF01F801CBFAD505E014F8016B5B
:1002100001F8016B6D1EF9D59142D6D370470000ED
:100220000023002400250026103A28BF78C1FBD8FF
:10023000520728BF30C148BF0B6070471FB510F090
:100240005CFE1FBD10B510BD00F003FA1146FFF7AC
:10025000F5FF0DF045FF00F021FA03B4FFF7F2FFC0
:1002600003BC00F025FA00002C4B19680868B0E8C0
:10027000F04F80F30988BFF36F8F4FF0000080F3D9
:10028000118870470000000008480068006880F38B
:1002900008884FF0000080F3148862B661B6BFF39F
:1002A0004F8FBFF36F8F00DF00BF00BF08ED00E08E
:1002B000DFF80C00016841F470010160704700BF75
:1002C00088ED00E0EFF30980BFF36F8F134B1A68DE
:1002D0001EF0100F08BF20ED108A20E9F04F1060CB
:1002E00009B44FF0500080F31188BFF34F8FBFF374
:1002F0006F8F0FF061FA4FF0000080F3118809BC96
:1003000019680868B0E8F04F1EF0100F08BFB0EC95
:10031000108A80F30988BFF36F8F704700030020B5
:10032000EFF30580704700000948804709480047FF
:10033000FEE7FEE7FEE7FEE7FEE7FEE7FEE7FEE795
:10034000FEE7FEE704480549054A064B70470000F2
:10035000E597000889010008B8B50020B8F500202D
:10036000B8D50020B8D5002053EA020C00F069800F
:100370002DE9F04B4FF00006002B1FBFB3FA83F5B9
:1003800003FA05F424FA05F65E4012BF1643B2FAEA
:1003900082F502FA05F4C5F120051EBF22FA05FC1C
:1003A00044EA0C04203556EA044C4FEA144418BFC2
:1003B000641C4FF000084FF00009904271EB030CF1
:1003C00039D3002919BFB1FA81F701FA07F6B0FA5B
:1003D00080F700FA07F6C7F120071EBF20FA07FCD6
:1003E00046EA0C062037B6FBF4FCA7EB0507103FE6
:1003F00007F01F0BCBF120060CFA0BFB2CFA06F6CC
:1004000044BFB3460026202FA4BF5E464FF0000B2A
:100410005BEA060C08BF4FF0010B19EB0B09ABFBB5
:10042000027C48EB0608C01B06FB02CC0BFB03CC8E
:1004300071EB0C01C1E70B46024641464846BDE858
:10044000F08B13B54FF000004FF00001AFF30080C8
:10045000BDE81C40704710B5431C02E010F8011BBA
:1004600071B18107FAD14FF0013202C88C1A8C4366
:1004700014EAC211F9D0C01A0A0603D0C01E10BD7A
:10048000C01A10BD0A0401D0801E10BD0902FCD0A4
:10049000401E10BD032A40F2308010F0030C00F023
:1004A000158011F8013BBCF1020F624498BF11F8AE
:1004B00001CB00F8013B38BF11F8013BA2F1040267
:1004C00098BF00F801CB38BF00F8013B11F00303DF
:1004D00000F02580083AC0F0088051F8043B083A43
:1004E00051F804CBA0E80810F5E7121D5CBF51F8E5
:1004F000043B40F8043BAFF30080D20724BF11F85F
:10050000013B11F801CB48BF11F8012B24BF00F8C3
:10051000013B00F801CB48BF00F8012B704710B534
:10052000203AC0F00B80B1E81850203AA0E81850EB
:10053000B1E81850A0E81850BFF4F5AF5FEA027CAC
:1005400024BFB1E81850A0E8185044BF18C918C01B
:10055000BDE810405FEA827C24BF51F8043B40F8BC
:10056000043B08BF7047D20728BF31F8023B48BFA1
:1005700011F8012B28BF20F8023B48BF00F8012BDF
:10058000704702F0FF0343EA032242EA024200F00E
:1005900002B84FF000020429C0F0128010F0030CE2
:1005A00000F01B80CCF1040CBCF1020F18BF00F866
:1005B000012BA8BF20F8022BA1EB0C0100F00DB815
:1005C0005FEAC17C24BF00F8012B00F8012B48BF73
:1005D00000F8012B70474FF0000200B51346944617
:1005E0009646203922BFA0E80C50A0E80C50B1F18B
:1005F0002001BFF4F7AF090728BFA0E80C5048BF9F
:100600000CC05DF804EB890028BF40F8042B08BF3C
:10061000704748BF20F8022B11F0804F18BF00F838
:10062000012B704770477047704710B500F00CF809
:10063000006810BD10B5044600F006F8046010BD57
:100640000048704754B500200048704754B500205A
:1006500070477546FFF7F4FFAE46050069465346FE
:1006600020F00700854618B020B5FFF76BFEBDE807
:1006700020404FF000064FF000074FF000084FF009
:10068000000B21F00701AC46ACE8C009ACE8C0099A
:10069000ACE8C009ACE8C0098D46704710B5044607
:1006A000AFF300802046BDE81040FFF7D6BD000044
:1006B00001491820ABBEFEE7260002000BF0B8BDD2
:1006C0000BF04CBE0CF07EBAF0EE400AF5EEC00A1C
:1006D000F1EE10FA02DDB0EE600A7047B1EE600A8A
:1006E000FBE70000002803D09FED020A80ED000A1E
:1006F0007047000000000000002803D0B3EE060A97
:1007000080ED000A7047000070B52DED0C8B84B0B1
:1007100006460C4615469FED990AF0EE408A9FED7D
:10072000970AB0EE409A9FED950AF0EE40BA9FED21
:10073000930AF0EE409A9FED910AB0EE40AA0EB1F6
:1007400004B11DB904B0BDEC0C8B70BD8C48FFF733
:10075000C9FF8C48FFF7D0FF8A48D0ED000A9FED13
:100760008A1A60EE810AB0EE600A00F025F9F0EE18
:10077000408A28EEA80AF0EE408A8248D0ED000AAE
:10078000B0EE001A60EE810A9FED7F1A60EE810ADA
:10079000B0EE600A00F010F9B0EE409A29EE090AB6
:1007A000B0EE409ADFED790AB7EE000A00EEA80A33
:1007B000DFED770A00EEC90ADFED760A20EE200AA7
:1007C000754880ED000A6E4890ED000ADFED730A6F
:1007D00080EE201AB7EE000A31EE000A20EE000A81
:1007E0006D48D0ED000A80EE801A6D4880ED001A49
:1007F00094ED000AB5EEC00AF1EE10FA0DD194EDB9
:10080000010AB5EEC00AF1EE10FA06D194ED020A23
:10081000B5EEC00AF1EE10FA46D09FED580AB0EEE0
:10082000408A0020019002900390D4ED000A60EE0F
:10083000A00A94ED011AD4ED011A41EE210A94EDBB
:10084000021AD4ED021A41EE210AB0EE600A00F05D
:10085000A9F8B0EE408A94ED000A20EE080A8DED6A
:10086000010A94ED010A20EE080A8DED020A94EDCA
:10087000020A20EE080A8DED030ADDED010AF1EE11
:10088000600AB0EE600AFFF719FFF0EE409A9DEDA6
:10089000031AF0EE410A9DED021AB0EE410AFFF78D
:1008A0000FFFB0EE40AA07E09FED340AF0EE409A49
:1008B0009FED320AB0EE40AA95ED000AB5EEC00AEF
:1008C000F1EE10FA0DD195ED010AB5EEC00AF1EE88
:1008D00010FA06D195ED020AB5EEC00AF1EE10FA53
:1008E0003CD0B0EE690A00F067F8B0EE408AB0EE96
:1008F000690AFFF7E7FEB0EE40DAB0EE4A0A00F010
:100900005BF8F0EE40AAB0EE4A0AFFF7DBFEB0EE6D
:1009100040BA28EE2A0AD5ED010A20EE200AD5EDCC
:10092000000A0DEE200A68EE0B0A95ED021A00EEA1
:10093000810AB0EE40CA95ED010A20EE0B0AD5ED12
:10094000020A0AEEE00AF0EE40CAF0EE6C0AB0EEDF
:100950004C0AFFF7B5FEF0EE40BA03E09FED070A40
:10096000F0EE40BAB0EE4A1AF0EE690AB0EE6B0A49
:1009700030460CF071F800BFE4E600000000000013
:100980000C0400201004002035FA8E3CC1BFAD3BA2
:100990009DF8C5362F7C1C4114040020506CC24ABF
:1009A0001804002010B50BF076FEB7EE001AC1EE69
:1009B000000AB0EE600A10BD0CF048B92DE9F04114
:1009C0002DED028B9AB00546B0EE408A0E461746D2
:1009D0009846002017901890199014901590169032
:1009E0004DB146B13FB1B8F1000F04D0B5EEC08AA9
:1009F000F1EE10FA05D100201AB0BDEC028BBDE873
:100A0000F08196ED000A8DED170A96ED010A8DED45
:100A1000180A96ED020A8DED190A97ED000A8DED80
:100A2000140A97ED010A8DED150A97ED020A8DED76
:100A3000160A17AA14A928460BF060FE402104A844
:100A4000FFF7C9FD00200090019002900390002460
:100A500017A904A80EF01AFC00BF30E004A800EBB0
:100A6000041090ED000AD5ED000A20EE200A04A83B
:100A700000EB0410D0ED010A95ED011A00EE810A99
:100A800004A800EB0410D0ED020A95ED021A00EE66
:100A9000810A04A800EB0410D0ED030A95ED031AB7
:100AA00000EE810A20EE080AF0EE000A80EE201A1D
:100AB000684600EB840080ED001A601CC4B2042C70
:100AC000CCDB002410E005EB840090ED000A6846C2
:100AD00000EB8400D0ED000A30EE200A05EB840024
:100AE00080ED000A601CC4B2042CECDB28460EF03A
:100AF00011FA012080E7000000B59FED1F1ADFED1D
:100B00001F0A30EE410A20EE200ADFED1D0A20EE1A
:100B1000200A05F0F1FB10EE100A1A49884204DCA5
:100B200010EE100A1849884202D39FED180A00BD42
:100B300010EE100A16494FF453020844904202D2B4
:100B40009FED140A00BD10EE100A1349884208D226
:100B500010EE100A0E49C943884202DCB0EE410A89
:100B600000BD10EE100A0C49494208449042F7D2E9
:100B70009FED0A0A00BD000000108B4500000039FF
:100B80000000B44300000743000007C3008005468F
:100B9000FFFFCBBD0010CB45000034C2002016453E
:100BA00001221021014802F084BB00000000024035
:100BB00000221021014802F07CBB0000000002402E
:100BC0007047000001221146014802F072BB00008C
:100BD0000004024000220121014802F06ABB00002B
:100BE0000004024030B5437804781B021BB2234353
:100BF00000EE103A1B4CB8EEC00AD4ED000A20EE0D
:100C0000200A81ED000AC37885781B021BB22B43B2
:100C100000EE103AF8EEC00A94ED000A60EE800A89
:100C2000C1ED010A437904791B021BB2234300EE94
:100C3000903AF8EEE00A20EE800A81ED020A017A8D
:100C4000C3790904807941EA0321014300EE101AB7
:100C5000DFED050AB8EE400A20EE200A82ED000A18
:100C600030BD00002C02002000401C4270470DF0F7
:100C7000E7BA0CF001BF000010B542780378120209
:100C800012B21A4300EE102A124BB8EEC00AD3ED8E
:100C9000010A20EE200A81ED000AC278847812024F
:100CA00012B2224300EE102AF8EEC00A93ED010AB8
:100CB00060EE800AC1ED010A42790079120212B297
:100CC000024300EE902AF8EEE00A20EE800A81ED61
:100CD000020A10BD2C02002010B5FFF771FFFFF7CC
:100CE000C5FF0CF083F808B1802402E00BF0F0FFA0
:100CF00004460CF041FA10B144F0400010BD0CF075
:100D0000CDF9204310BD00002DE9FC4104460D46FD
:100D10001646002000900190FFF74AFF922000F055
:100D2000BFF806226946122000F09CF8FFF738FF52
:100D30009DF801009DF80010000200B2084300EE8B
:100D4000100A474FB8EEC00AD7ED000A20EE200A7D
:100D500085ED000A9DF803009DF80210000200B224
:100D6000084300EE100AF8EEC00A97ED000A60EEA4
:100D7000800AC5ED010A9DF805009DF804100002E7
:100D800000B2084300EE900AF8EEE00A20EE800A76
:100D900085ED020AFFF71EFF08226946002000F0D9
:100DA00061F8FFF70FFF9DF800000F2830D19DF884
:100DB00003009DF80210000200B2084300EE100A82
:100DC000D7ED010AB8EEC00A20EE200A84ED000A31
:100DD0009DF805009DF80410000200B2084300EEE3
:100DE000100AF8EEC00A97ED010A60EE800AC4ED21
:100DF000010A9DF807009DF80610000200B20843A2
:100E000000EE900AF8EEE00A20EE800A84ED020A75
:100E1000FFF7CEFEA22000F043F80222694622200E
:100E200000F020F8FFF7BCFE9DF800009DF80110CF
:100E3000C00040EA5110B0F5806F02DBA0F5006001
:100E400000B200EE100AB4EE001AF8EEC00AB3EEDB
:100E5000070A00EE810A86ED000ABDE8FC81000069
:100E60002C02002070B50D46144640F0800000F0C2
:100E700017F806E0552000F013F805F8010B641E82
:100E8000E4B2002CF6D170BD10B50C4640F08000E5
:100E900000F006F8552000F003F8207010BD0000A7
:100EA00001B582B04FF47A700090012301AA02A923
:100EB000024803F0AFFE9DF804000EBD98310020FB
:100EC00002784078D20042EA5010B0F5806F02DB21
:100ED000A0F5006000B200EE100AB4EE001AF8EEC1
:100EE000C00AB3EE070A00EE810A81ED000A7047DE
:100EF00010B50C46FFF7D4FF2046BDE81040FFF7C1
:100F0000CFBFFEE7014801F09BBA0000F43000209B
:100F1000014801F095BA00001C31002008B51B48BB
:100F20004FF4A071016000218160C160082101615E
:100F30009FED172A20EE020ABCEEC00A10EE101A2E
:100F400014480170090A417020EE820ABCEEC00A02
:100F500010EE101A8170090AC17021EE020ABCEE6F
:100F6000C00A10EE101A0171090A417121EE820ABD
:100F7000BCEEC00A10EE101A8171090AC171024656
:100F80006B460249044801F0D5F808BD141700204B
:100F90000000C84288010020F430002038B50E4C13
:100FA0004FF4007525600025A560E56008252561E2
:100FB0000A4C050A25706070080AA070E170100ADA
:100FC00020716271180AA071E3716B4622460249D2
:100FD000034801F0AFF838BDFC1600208001002066
:100FE000F43000203EB5124C40F2FF15256000257C
:100FF000A560E56008252561040A8DF800408DF89C
:101000000100080A8DF802008DF80310100A8DF80F
:1010100004008DF80520180A8DF806008DF80730B9
:1010200002AB6A460249034801F084F83EBD000065
:1010300044090020F430002038B50E4C40F2FF1572
:1010400025600025A560E560082525610A4C050A94
:1010500025706070080AA070E170100A207162713A
:10106000180AA071E3716B4622460249034801F059
:1010700061F838BD0C0E0020040100201C31002056
:1010800004284FF0000070470020704710B5002280
:101090000449054809F0D2F90449034809F0C0F9A8
:1010A000002010BDCC4A0020C4360020CC420020D5
:1010B00010B504460988204689B209F0DFFC2146B4
:1010C000034809F0ADF9024809F07AF9002010BD93
:1010D000C43600200020704710B50A460849D1F8F0
:1010E000BC12D1F81412002901D0012010BD014614
:1010F000034809F0A3F9BDE81040014809F036BAE9
:10110000C436002010B5FF22054C03E010F8013B67
:101110005340E25C491E4B1CF8D1104610BD000044
:101120000412010830B505460C46002D01D0022CF2
:1011300001D8002030BD611E2846FFF7E3FF2919C2
:1011400011F8011C884201D1012030BD002030BDC2
:1011500010B502464FF6FF70002A0CD0064C07E08F
:1011600012F8013B4340DBB234F8133083EA10201D
:10117000491E4B1CF4D110BD0413010830B50546BF
:101180000C46002D01D0022C01D8002030BDA11E3C
:101190002846FFF7DDFF2919C2B211F8023C9A4236
:1011A00006D111F8011CB1EB102F01D1012030BD87
:1011B000002030BD10B5FF22054C03E010F8013BC4
:1011C0005340E25C491E89B2F8D2104610BD0000BF
:1011D000AC0F01082DE9F0410020234CB7EE000AC6
:1011E000204F94ED0E1A1E4EA7F1400570EE410AF5
:1011F00006EB0011C0EBC002B1F9021002EB420293
:1012000000EE101A07EB8203B8EEC00A05EB80026D
:10121000D2ED001A20EE200A01EE810A83ED000AC9
:1012200000EE101AB8EEC00A82ED000A401CC0B2EF
:101230000428DDD39FED0D0A84ED070A94ED120B0F
:1012400051EC100B0FF07AF8A0610948008900EE0C
:10125000100AB8EE400A84ED080ABDE8F0810000EB
:101260001C0400202C1700203001002000007042D8
:10127000EC29002070B52DED048B002400269FED95
:10128000168A164DDFED168A9FED169AC4EBC40040
:1012900000EB400005EB800080ED008A80ED018AC4
:1012A00006810C30F0EE680AB0EE490A0E4A0021C1
:1012B00005F092FF641CE4B2042CE7D3BDEC048B70
:1012C000094ABDE870400C32DFED080A9FED080ABC
:1012D0000021084805F080BF000000002C17002006
:1012E0000000FA4400007A46940F01080080BB44D5
:1012F00000409C468C1800201FB5FFF7BBFFC8209C
:101300000EF03EF9364FDFF8D490E846A7F5A87600
:10131000FFF760FF0CF03EF899F80000012807D1B4
:101320009FED300A87ED000A87ED010A87ED020A7A
:1013300097ED021AD7ED010A97ED000A68460CF006
:10134000F3FA002008EB800191ED000AC0EBC00128
:1013500001EB410106EB810181ED010A401CC0B2A5
:101360000428EFD30025C5EBC50000EB400006EBD9
:10137000800404F10C00D4ED010A94ED000A05F09C
:1013800053FE94ED0B0ABDEEC00A10EE100A208148
:101390006D1CEDB2042DE6D31348C07A022803D0A9
:1013A00000200DF0FBFE30B100231A461946184606
:1013B000FFF7F4FD0DE00BF071FF0CF08FFFB6F9B5
:1013C0000431B6F9B020B6F95C10B6F90800FFF7A1
:1013D000E5FD02200EF0D4F89AE70000200100207D
:1013E0007C1800200000000056290020014801F070
:1013F00075BC0000A4350020014801F06FBC00005E
:1014000004360020AFF300802DE9F05FFA48FB4A74
:10141000FA4DC06CFA4EF94F0068DFF8E4C3DFF80C
:10142000DC83DFF8DC93DFF8D4A3DFF8D4B3DFF894
:10143000CCE3F34C483D60361837D1140CF1180C4E
:10144000A8F1300809F178090AF1300A0BF1300BE4
:10145000AEF1180E90423ED9E84A543A1368A042C1
:1014600001D1202235E0A84201D1202231E0B04252
:1014700001D120222DE0B84201D1202229E060458F
:1014800001D10A4625E0404501D10A4621E0484500
:1014900001D10A461DE0504501D10A4619E05845E0
:1014A00002D14FF4001214E0704502D14FF4001243
:1014B0000FE0D34A9032904202D14FF4001208E07C
:1014C000CE4A4832904202D14FF4001201E04FF070
:1014D00000621340C3E0CA4AA83290423ED9C74ACC
:1014E000583A1368A04201D1202235E0A84201D128
:1014F000202231E0B04201D120222DE0B84201D1BA
:10150000202229E0604501D10A4625E0404501D16D
:101510000A4621E0484501D10A461DE0504501D167
:101520000A4619E0584502D14FF4001214E0704504
:1015300002D14FF400120FE0B14A9032904202D132
:101540004FF4001208E0AD4A4832904202D14FF405
:10155000001201E04FF00062134080E0A84A4832D8
:1015600090423ED9A64A103A5368A04201D12022A7
:1015700035E0A84201D1202231E0B04201D1202241
:101580002DE0B84201D1202229E0604501D10A4670
:1015900025E0404501D10A4621E0484501D10A46EF
:1015A0001DE0504501D10A4619E0584502D14FF4DB
:1015B000001214E0704502D14FF400120FE0904A7F
:1015C0009032904202D14FF4001208E08B4A483228
:1015D000904202D14FF4001201E04FF0006213403C
:1015E0003DE0874A103A1368A04201D1202235E03D
:1015F000A84201D1202231E0B04201D120222DE0C9
:10160000B84201D1202229E0604501D10A4625E0F7
:10161000404501D10A4621E0484501D10A461DE076
:10162000504501D10A4619E0584502D14FF4001245
:1016300014E0704502D14FF400120FE0704A90326E
:10164000904202D14FF4001208E06C4A48329042B6
:1016500002D14FF4001201E04FF000621340002B62
:1016600072D0664A904235D9A04201D120212DE0A6
:10167000A84201D1202129E0B04201D1202125E05A
:10168000B84201D1202121E060451FD040451DD046
:1016900048451BD0504519D0584502D14FF4001190
:1016A00014E0704502D14FF400110FE0544990311D
:1016B000884202D14FF4001108E050494831884275
:1016C00002D14FF4001101E04FF000614B484C385B
:1016D0000160ADE04A4AA832904236D9A04201D119
:1016E00020212DE0A84201D1202129E0B04201D1E2
:1016F000202125E0B84201D1202121E060451FD002
:1017000040451DD048451BD0504519D0584502D101
:101710004FF4001114E0704502D14FF400110FE0B6
:1017200037499031884202D14FF4001108E0334923
:101730004831884202D14FF4001101E04FF00061BE
:101740002E485038016073E0AEE02D4A4832904296
:1017500035D9A04201D120212DE0A84201D120217C
:1017600029E0B04201D1202125E0B84201D1202159
:1017700021E060451FD040451DD048451BD0504555
:1017800019D0584502D14FF4001114E0704502D130
:101790004FF400110FE01A499031884202D14FF402
:1017A000001108E015494831884202D14FF4001178
:1017B00001E04FF0006112481038C16038E0A042EB
:1017C00001D1202131E0A84201D120212DE0B042F9
:1017D00001D1202129E0B84201D1202125E0604536
:1017E00023D0404521D048451FD050451DD05845F5
:1017F00008D14FF4001118E09831002058640240DD
:1018000010600240704502D14FF400110DE02749ED
:10181000884202D14FF4001107E02549884202D1E5
:101820004FF4001101E04FF000612048A0388160C2
:10183000204C207880070CD5207820F00200207002
:10184000207840F004002070012211461A4801F06F
:1018500030FD6078194D80070CD5607820F00200CB
:101860006070607840F0040060700122102128460A
:1018700001F01FFDA07880070CD5A07820F00200B1
:10188000A070A07840F00400A0700122102128462A
:1018900001F00FFD0CF0CAFA2078400704D5084883
:1018A000016841F001010160BDE8F09FA0600240C5
:1018B000A06402402C00002000040240000002400E
:1018C000103C0140014801F009BA000050320020EC
:1018D000014801F003BA000044350020014801F03E
:1018E000FDB9000064360020014801F0F7B900009E
:1018F000E43400200168CAB2103A1823B2FBF3F2B4
:10190000064B9B5CC3656FF30901032A02D9091DCD
:10191000816500E08165806D70470000E411010879
:1019200010B5014600208A6A8B694FF0C074002B05
:101930000ED0B3F5005F1AD062B3012A2AD0022A72
:1019400028D0032A03D1C96AC90100D5012010BDDE
:101950001AB1012A06D0022AF9D1C96AC901F6D5FD
:10196000012010BDC96AA142FBD1012010BD52B1B6
:10197000012A0AD0022A06D0032AF7D1C96AA14255
:10198000F4D1012010BD012010BDC96AC901FBD5E9
:10199000012010BD012010BD30B50468256825F474
:1019A00080252560046863608368402B04D0036849
:1019B00099600068C26030BD03689A600068C160C9
:1019C00030BD000070B50E4D0E4C287BC00707D00F
:1019D000607928B90520A0714FF47A7001F008FBF6
:1019E000287B00F00100607106E0012108460CF040
:1019F0008DF8A079401EA071A0790028F5D170BDA6
:101A0000DF290020D0000020704700002DE9F041C0
:101A10004048414C414D007B4FF00006400704F127
:101A20001C0704F164083AD5B4F9160044F2506179
:101A300008444900884232D920680FF0EDF941ECA2
:101A4000100B0AF0E1FD9FED361B51EC100B53EC2F
:101A5000112B0EF0F1FE22D26869401C68616428E7
:101A60001DD9B4F91600002803DA4FF4FA50E082C9
:101A700002E04EF2C000E082C8200DF081FD07F0C8
:101A8000A3FC384605F088FB404605F085FB6E61F7
:101A9000254890ED000AB8EEC00A84ED030AE888F4
:101AA000012813D09FED210A84ED010AD4ED010A2B
:101AB00094ED000A384605F0B7FA94ED0F0ABDEE32
:101AC000C00A10EE100AE082BDE8F081687818B113
:101AD000A878012809D010E0B5F9040000EE100A3A
:101AE000B8EEC00A84ED010AE0E72889401C80B204
:101AF0002881322801D9AE702E81D4ED030A94EDED
:101B0000020A404605F090FA94ED210A84ED010A9C
:101B1000CCE70000DF2900205C0B0020E80000205B
:101B200000000000000059401000002000000000EC
:101B3000012001F0BBBA082001F0B8BA102001F072
:101B4000B5BA202001F0B2BA04218C4803F0DCFCC5
:101B500008218A4803F0D8FC894C60782071E1782C
:101B60006171DFF818A2DAF800209163DAF800104A
:101B7000C8630127A7710525E571DFF808B2DFF812
:101B80000882DFF808920026207A08B1401E2072F1
:101B90009BED010AB5EEC00AF1EE10FA01DCB1EEE0
:101BA000400AB5EEC00AF1EE10FA0DDD9BED000A19
:101BB000B5EEC00AF1EE10FA01DCB1EE400A10EE0B
:101BC000100A404500DD25729BED2C0AB5EEC00AD7
:101BD000F1EE10FA01DCB1EE400AB5EEC00AF1EE0A
:101BE00010FA0DDD9BED2B0AB5EEC00AF1EE10FAEE
:101BF00001DCB1EE400A10EE100A404500DD25720E
:101C000099F80B00012803D0032801D00A20207284
:101C100099F80A00022803D0B9F81400C00501D5CC
:101C200014202072207A30B120782071A078607161
:101C3000A671E57195E0B9F900000A2808DD607821
:101C400014382071A07814386071A671E57188E0AD
:101C50006FF00901884208DA207814302071E078AA
:101C600014306071A771E5717BE0B9F906000A28AC
:101C700006DD20782071A0786071A671E57170E0B2
:101C8000884206DA60782071E0786071A771E571AA
:101C900067E0B9F904000A280CDD6078217808446F
:101CA00040082071E078A178084440086071A6716E
:101CB000E57156E088420CDA6078217808444008E3
:101CC0002071E078A178084440086071A771E5713F
:101CD00047E0E07960B161782278114449082171C8
:101CE000E178A278114449086171401EE07138E042
:101CF000A079C8B9217960784A1C824201D2491C76
:101D000000E00146CBB223716279E178A2F1010CC7
:101D10008C4501DD521E00E00A46D2B26271834258
:101D200002D18A4200D1A771A079012819D1217965
:101D300020784A1E824201DD491E00E00146CBB2F6
:101D400023716279A17802F1010C8C4501D2521CF9
:101D500000E00A46D2B26271834202D18A4200D1C7
:101D6000A671DAF8001060798863DAF8001020793B
:101D7000C8630A200DF004FC06E700004033002091
:101D8000210100205C0B002000007A44562900202D
:101D900072B6FEE710B5234A234C117894ED000A81
:101DA000002919D0D06800EE900AF8EEE00AC4EDE0
:101DB000010A404200EE900AF8EEE00AC4ED2C0A57
:101DC00010EE100A194B984206DD194BD4F8AC00FE
:101DD000984201D90120D08029B9DFED160AC4ED5F
:101DE000010AC4ED2C0A1048D4ED010A1C3005F09C
:101DF0001BF90D48D4ED2C0A94ED2B0AC83005F0E0
:101E000013F994ED0F0ABDEEC00A10EE100AE0823D
:101E100094ED3A0ABDEEC00A10EE100AA4F8C20012
:101E200010BD0000E8000020B40C002000409C45DC
:101E300000409CC50000000010B50B480168001D63
:101E40000468001D0068084400280BD008220749D8
:101E500004F022FA054920460422BDE81040103162
:101E600004F01ABA10BD0000107AFF1FC202002051
:101E700018B5244991ED070A91ED051A60EE000AA4
:101E800041EE010AF5EEC00AF1EE10FA04DBB1EE04
:101E9000E01A8DED001A03E0DFED1B0ACDED000A1C
:101EA000B5EEC00AF1EE10FA05D2DDED000AF1EE52
:101EB000600ACDED000ADFED150A154820EE200A74
:101EC00080ED000A134A92ED000A80ED030A124BDE
:101ED0001C8800EE104AB8EE400A80ED050AB3F9FE
:101EE000023000EE103AB8EEC00A80ED060A0B4848
:101EF00091ED060A80ED100A92ED020A80ED130AB8
:101F000018BD0000A006002000000000E12E654280
:101F10005C090020880600205C040020AC0400203E
:101F200010B500219FED370A374A002302EB01204C
:101F300080ED000A80ED010A80ED030A80ED040ABD
:101F400080ED050A80ED070A80ED080A80ED060A9B
:101F50008384491CC9B20229E8D32C4880ED130AB6
:101F600080ED140A80ED100A80ED110A0387438783
:101F7000838780ED070A80ED080A80ED090A224870
:101F8000DFED230A9FED230A234A0021283005F0C4
:101F900023F9214A1C48DFED210A9FED210A0C326A
:101FA0000021703005F018F91B4A1748F3EE0E0AAD
:101FB0009FED1C0A18320021B83005F00DF9164AC1
:101FC0001248F1EE040AB2EE040A24320021543021
:101FD00005F002F9104A0D48F7EE000AB1EE020AC8
:101FE000303200219C3005F0F7F80B4A07483C32AC
:101FF0000021BDE81040F7EE080AB3EE040AE43011
:1020000005F0EAB8000000005C090020AC040020E4
:1020100000401C460060EA461C0F01080000C84250
:10202000000096440000A0422DED028BFFF778FFE0
:10203000324F0220F8724FF4966000F0D9FF012170
:1020400008460BF063FDC8200DF09AFA2C4D2D4C7C
:102050009FED2D8A2D4EFFF7B5FCFFF709FF09F024
:10206000DFFF05F0C5F905F0E5F894ED000A84ED11
:10207000020A95ED100A85ED120AF87A022829D095
:102080000023B4F924001A461946FEF7ABFFB5F950
:102090003C0000EE100A0120B8EEC02AB0EE480A5B
:1020A000F0EE401AB0EE401AF0EE400A0BF05CFC85
:1020B000307AD4ED030A00EE100A3068F0EE481AC8
:1020C000B8EE401A00EE100A09F098FF01200DF05A
:1020D00057FAC0E700231A4619461846FEF782FF52
:1020E000B0EE480A0120B0EE402AF0EE401AB0EE01
:1020F000401AF0EE400A0BF037FCD9E756290020D1
:10210000AC0400205C09002000000000D42800205E
:1021100090F82020012A07D0022A05D0416A41F414
:102120008021416201207047006842690A43426190
:1021300000207047F0B590F820500468A468012D85
:1021400007D0022D05D0416A41F48021416201206F
:10215000F0BD04F0806504F00066354301D1E50070
:102160005BD5C4F30164022C05D9416A41F4000136
:1021700041620120F0BD0125A5401D608B684FF430
:10218000C0759BB1CE6805EB041733434E6843EA34
:10219000C6030668F3514FF4C273076803EB0413D8
:1021A0000E69FE50097D012909D00DE00E88CB682B
:1021B00005EB041743EA46530668F351EBE7016861
:1021C000CE5846F48076CE501179D379567941EACB
:1021D000036193791B0443EA062319434FF4C6763F
:1021E000036806EB041699511178D37841EA03612C
:1021F000937852781B0443EA022211434FF4C473CC
:10220000026803EB0413D150006805EB0411425837
:1022100042F0010242500020F0BD416A41F4001139
:1022200041620120F0BD000010B590F82020012A85
:1022300007D0022A05D0416A41F480214162012081
:1022400010BD3C4800F50070026842F001020260D7
:10225000026822F47C52026002684B6A42EA03225E
:1022600002600A7D02F01F0301229A40C369934372
:10227000C361A0F50070CB69B3B9D0F80C329343B9
:10228000C0F80C328C894B6864F31F434C6900EB37
:10229000C404C4F840320C890B6864F31F434C69D2
:1022A00000EBC404C4F84432CB69012B16D1D0F83A
:1022B0000C321343C0F80C320C884B6864F31F4394
:1022C0004C6900EBC404C4F840320C89CB6864F359
:1022D0001F434C6900EBC404C4F844328B697BB1E2
:1022E000D0F804321343C0F804320B6973B1D0F84C
:1022F00014321343C0F81432096A01290CD010E0DB
:10230000D0F804329343C0F80432EEE7D0F8143228
:102310009343C0F81432EFE7D0F81C121143C0F811
:102320001C12D0F8001221F00101C0F800120020A8
:1023300010BD000000640040704730B590F82040A8
:10234000012C07D0022C05D0416A41F48021416262
:10235000012030BD21B104682469A4075FD003E0E7
:102360000468E468A40754D04FF4D874056804EBFB
:1023700001142D5905F004059560F5B305682D5934
:10238000ED08556005682C5904F00204D4604FF440
:10239000DA74056804EB01142D5905F00F05156179
:1023A00005682D59C5F30725956105682C59240C3E
:1023B00054614FF4DC72046802EB0112A4581C70E3
:1023C0000468A458240A5C700468A458240C9C7007
:1023D0000468A258120EDA704FF4DE72046802EB41
:1023E0000112A4581C710468A458240A5C71046882
:1023F000A458240C9C71046800E016E0A258120E48
:10240000DA71B9B10068016941F020010161002071
:1024100030BD416A41F400114162012030BD416A82
:1024200041F400114162012030BD05682D596D0D48
:102430001560A7E70068C16841F02001C160E6E7C8
:102440002DE9F05F0546002428684669D0F804901D
:102450008768D0F80CA0D0F810B0D0F81880F10739
:1024600048D0F90714D001218160B80703D5284668
:1024700000F0AEFB0CE0780702D54FF4006407E0F3
:10248000380702D54FF4805402E0284600F09FFB45
:10249000F80516D529684FF480708860B80503D513
:1024A000284600F097FB0CE0780502D544F4005470
:1024B00007E0380502D544F4804402E0284600F0E5
:1024C00088FBF80316D529684FF480308860B8037C
:1024D00003D5284600F080FB0CE0780302D544F4D5
:1024E000004407E0380302D544F4803402E0284673
:1024F00000F071FB300707D55FEACA6004D544F4E9
:10250000007429681020C86070074FF0080707D5CD
:102510005FEA0A7004D52868C760284600F0B8F959
:10252000B00706D52868C068800702D0284600F0AA
:10253000B1F9700607D55FEACB6004D544F4806436
:10254000296810200861B00607D55FEA0B7004D532
:1025500028680761284600F00BFBF00606D52868BE
:102560000069800702D0284600F003FBB00308D5BD
:102570005FEAC96005D5296810204860284600F048
:10258000F9FAF00307D55FEA097004D528684760B7
:10259000284600F022FB300446D55FEA497040D55A
:1025A000F00504D55FEAC87001D044F00104B0051D
:1025B00004D55FEA887001D544F00204700504D5A3
:1025C0005FEA487001D544F00404300529D518F0BD
:1025D000700F26D008F07000402815D006DC1028B7
:1025E00009D020280AD0302816D10AE050280ED071
:1025F000602811D10EE044F008040DE044F010040E
:102600000AE044F0200407E044F0400404E044F011
:10261000800401E044F480742868816921F070012D
:102620008161296804204860002C05D0686A204335
:1026300068622846FFF780FEBDE8F09F70B504464B
:10264000002C03D094F8200010B104E0012070BDEC
:10265000204600F09DF82068016841F0010101600A
:1026600000F02EFE054605260CE000F029FE401B7A
:102670000A2807D9606A40F40030606284F820605C
:10268000012070BD20684068C007EED02068016856
:1026900021F00201016000F013FE05460CE000F09D
:1026A0000FFE401B0A2807D9606A40F400306062C0
:1026B00084F82060012070BD206840688007EED457
:1026C000207E01283FD02068016821F08001016050
:1026D000607E01283DD02068016821F04001016042
:1026E000A07E01283BD02068016821F02001016014
:1026F000E07E012839D02068016841F010010160B6
:10270000207F012837D02068016821F0080101608E
:10271000607F012835D02068016821F00401016044
:10272000D4E902010843D4E9041211430843616863
:10273000491E08432168C86100206062012084F8B6
:102740002000002070BD2068016841F08001016018
:10275000BEE72068016841F040010160C0E72068E1
:10276000016841F020010160C2E72068016821F0A2
:1027700010010160C4E72068016841F008010160B0
:10278000C6E72068016841F004010160C8E7000065
:102790002DE9F04186B00446142101A8FDF71BFF86
:1027A000364B374ADFF8D08018682168344C03264E
:1027B0000227401C103200254FF0090C414527D15B
:1027C0001860012807D1106840F000701060106890
:1027D00000F000700090206840F008002060206841
:1027E00000F0080000900196029703950496CDF83A
:1027F00014C001A9234800F065FC00220521142023
:1028000001F0E8F8142001F0D7F806B0BDE8F08137
:10281000DFF874804145F8D1116841F080611160A2
:10282000116801F0806100911860012807D11068DB
:1028300040F000701060106800F000700090206898
:1028400040F002002060206800F00200009060204C
:102850000190029703950496CDF814C001A90B4886
:1028600000F030FC00220521402001F0B3F84020A8
:1028700001F0A2F8C9E700000064004080020020D7
:1028800030380240000C0240006800400004024062
:10289000704700002DE9F0410546AA48AA4C854240
:1028A0007AD104F11903A94A00212846FFF745FD12
:1028B000A64840F203230168A1F50070013809D051
:1028C000A1F50070023805D0994203D0B1F5017F1F
:1028D00000D061609C48A1F20322193099420FD0C8
:1028E00009DCB1F5987F74D0A1F50072013A07D0E8
:1028F000012A72D104E0012A02D0022A6DD14CE0F3
:10290000491ECBB22370924901EB03110A880A8158
:102910004278067842EA06220A80C278867842EA3D
:1029200006224A804279067942EA06228A80807924
:10293000887108880A89801A02B2002A02DA4FF4E4
:10294000005000E08348104400B2002801DB064636
:1029500000E04642002A01DB174600E05742BE4233
:1029600002DA00EE100A01E000EE102AD1ED030AAF
:10297000B8EEC00A30EE200A81ED030A72480C302E
:10298000C25C2AB99FED740A81ED030A0121C1548A
:102990005B1CD8B20BF08CF81FE0491FC9B2617004
:1029A0006B4A403202EB01110A880A8142780378AF
:1029B00042EA03220A80C278837842EA03224A80EC
:1029C0004279037942EA03228A808079887104E09F
:1029D000FFE75D4819300CF035FC6048854232D184
:1029E000594B5A4A11331C3200212846FFF7A5FCE7
:1029F0005648554D1C3005F111050068021E24D0C3
:102A00005349A0F50070063801F160016DD001282E
:102A100001D0022817D1D21FD0B2A07001EB001054
:102A20000188018169782A7841EA02210180E978E8
:102A3000AA7841EA0221418069792A7941EA022192
:102A40008180A9798171BDE8F081414C287890346A
:102A500000F00F01216000096060A878697840EA01
:102A60000120A060E9780A01297942EA1112E260A6
:102A70006A7901F00F0142EA012121611021DFEDA5
:102A8000380A9FED380A0CF095FB10EE100A0EF094
:102A9000C3F99FED351B53EC112B0DF009FF0DF021
:102AA0004DFCE0610C21F3EE0E0ABBEE0E0AE0686D
:102AB0000CF080FB84ED080A0C21F2EE040ABAEE59
:102AC000040A20690CF076FB84ED090AA87900EE6F
:102AD000100AB8EE400A84ED0C0AE87900EE100AFC
:102AE000B8EE400A84ED0D0AADE7B1F92000088583
:102AF0006A782B7842EA03220A84EB78AE7843EABC
:102B000006234B846B792E7943EA06238B84AB79B9
:102B100081F82630101AB0F5805F05DDA168084401
:102B2000A0F50050A0608EE710F5805F05DAA1687F
:102B3000084400F50050A06085E7A1680844A06043
:102B400081E70000F430002008000020D8050020B4
:102B50001C04002000E0FFFF000000001C310020EA
:102B6000DA0F4940DA0F49C00734226294A94C4079
:102B700070477047704770B5044694F820000128EC
:102B800005D0606A40F400206062012070BD022020
:102B900084F820002068016821F00101016000F044
:102BA0008FFB05460DE000F08BFB401B0A2808D97F
:102BB000606A40F400306062052084F82000012043
:102BC00070BD20684068C007EDD1606270BD70477D
:102BD00070477047704770477047704710B504469C
:102BE000002C02D0607910B106E0012010BD002059
:102BF0002071204600F004F801206071002010BD13
:102C000008B500680649884208D10648016841F4C1
:102C100080510160006800F48050009008BD000001
:102C200000300240303802402DE9F0410446A76DE3
:102C300000F046FB054694F835000026022806D031
:102C40008020606584F834600120BDE8F081206850
:102C5000016821F0160101602068416921F08001BE
:102C60004161206C08B9A06C20B12068016821F096
:102C7000080101602068016821F0010101600BE09A
:102C800000F01EFB401B052806D9202034342062AA
:102C9000032060702670D8E720680068C007EFD175
:102CA00034343F2094F828108840B86001206070C8
:102CB00026700020C9E790F83510022903D0802142
:102CC000416501207047052180F8351000680168D2
:102CD00021F0010101600020704700002DE9F84358
:102CE00004464FF00009CDF800906F484FF416519C
:102CF0000068B0FBF1F7A56D2E6894F85C0008221F
:102D000002FA00F1314210D02068016849070CD561
:102D1000016821F00401016094F85C0002FA00F1FE
:102D2000A960606D40F00100606594F85C104FF0A0
:102D3000010808FA01F0304208D021684969090603
:102D400004D5A860606D40F00200606594F85C10E6
:102D500004208840304208D021680968890704D5DA
:102D6000A860606D40F00400606594F85C1010206D
:102D70008840304220D02168096809071CD5A86026
:102D80002068016849030CD50068000304D4216C55
:102D900091B1204688470FE0A16C69B12046884771
:102DA0000AE00168C90503D4016821F00801016047
:102DB000216C09B12046884794F85C102020884097
:102DC00030424CD021680968C90648D5A86094F8FB
:102DD000350005280BD020680168490330D500680C
:102DE000000328D4616C51B32046884737E020683F
:102DF000016821F0160101602068416921F080011D
:102E00004161206C08B9A06C20B12068016821F0F4
:102E10000801016094F85C103F208840A86084F8A5
:102E2000358084F83490216D00293BD001B02046D4
:102E3000BDE8F0430847E16B09B1204688470EE042
:102E40000168C90507D4016821F01001016084F808
:102E5000358084F83490E16B09B120468847606D75
:102E600000281FD0606DC00714D0052084F83500FD
:102E70002068016821F0010101600098401C009069
:102E8000B84203D820680068C007F6D184F83580BE
:102E900084F83490E16C002904D001B02046BDE8EC
:102EA000F0430847BDE8F883FC0200202DE9F0411B
:102EB000044600F005FA05465CB1022084F83500AE
:102EC000002684F834602068016821F00101016067
:102ED0000DE00120BDE8F08100F0F2F9401B05286B
:102EE00005D920206065032084F83500F2E72068CA
:102EF0000068C007F0D121680A6820480240D4E980
:102F000001031843D4E903352B431843636918437D
:102F1000A3691843E3691843236A18431043626A9C
:102F2000042A03D1D4E90B231A4310430860206814
:102F3000406920F00700656A2946054301270429F6
:102F40000DD1A06A0543E06A48B12046FEF7E8FCCF
:102F500028B14020606584F835700120BAE7206808
:102F600045612046FEF7C6FC94F85C203F21914065
:102F70008160666584F835700020ABE73F8010F013
:102F80002DE9F04104460025A66D94F8340001288F
:102F90000DD0012084F8340094F835700020012F02
:102FA00007D084F8340002252846BDE8F0810220CD
:102FB000FBE7022784F8357060652046FEF7ECFCDD
:102FC00094F85C103F208840B0602068016841F0B0
:102FD00016010160206C20B12068016841F00801F1
:102FE00001602068016841F001010160DCE7000038
:102FF00070B5044600F064F90546601C02D0044830
:103000000078044400F05CF9401BA042FAD370BD84
:10301000F002002010B5234C10281BD020282BD004
:10302000082837D0012814D160710CF0ABFF0128BB
:103030000FD004F1100160690CF0D8FA2069002863
:1030400007D019494FF080500860BFF34F8FBFF38E
:103050006F8F10BD09200AF02BFD607840F0010051
:103060006070A07840F00100A07020790028F0D0B6
:10307000BDE810400AF0DABE08200AF019FD2078F9
:1030800040F00100207020790028E2D0BDE8104017
:103090000AF0CCBE0A200AF00BFDE07840F00100F7
:1030A000E07010BD2C00002004ED00E010B50449D4
:1030B0000A68024202D00860FFF7ACFF10BD0000B2
:1030C000143C01402DE9F84F0022DFF89C914FF0AD
:1030D000010803274FF00F0C09F1040AA9F1040BB2
:1030E00008FA02F50B682B40AB426ED10C7904F064
:1030F0000304012C01D0022C15D18668540007FA74
:1031000004FE26EA0E06D1F80CE00EFA04FE4EEAA2
:10311000060EC0F808E04468AC430D79C5F300150D
:103120009540254345600C79E443A40708D0C56861
:10313000540007FA04F6B5438E68A6402E43C660D5
:103140000C7904F00304022C11D1D40800EB84069E
:10315000356A5407E40E0CFA04FE25EA0E05D1F890
:1031600010E00EFA04FE4EEA050EC6F820E00568EF
:10317000540007FA04F6B5430E7906F00306A6409C
:103180002E4306604C6814F4403F67D0374C2568E6
:1031900045F480452560246804F480440094344C50
:1031A00022F003052E19D6F8085894074FEA147E2A
:1031B0000CFA0EF4A5432F4CA04201D1002424E0C8
:1031C0002D4CA04202D101241FE047E02B4CA0422D
:1031D00001D1022419E02A4CA04201D1032414E0B9
:1031E000284CA04201D104240FE0274CA04201D179
:1031F00005240AE0254CA04201D1062405E0244C18
:10320000A04201D1072400E0082404FA0EF42C4364
:10321000C6F80848D9F800409C434D68ED0200D537
:103220001C43C9F80040DAF800409C434D68AD02E9
:1032300000D51C43CAF80040DBF800409C434D68B1
:10324000AD0300D51C43CBF80040074D083D2C686A
:103250009C434E68F60300D51C432C60521C102A78
:10326000FFF43EAFBDE8F88F083C0140443802400F
:10327000003001400000024000040240000802400B
:10328000000C0240001002400014024000180240EE
:10329000001C02400069084201D001207047002054
:1032A0007047426921EA02030A4043EA0241816110
:1032B0007047002A01D0816170470904816170471D
:1032C0000148806870470000F002002070B5044695
:1032D000002C04D094F83D00002510B106E0012038
:1032E00070BD84F83C50204600F0A4FA242084F8F5
:1032F0003D002068016821F001010160206801683B
:1033000041F4004101602068016821F4004101603E
:1033100001F062F94F4B6168994203D84E498842E7
:1033200003D304E04D49884201D2012070BD4C49CD
:10333000B0FBF1F12268566826F03F060E43566056
:1033400062689A4201D8491C07E04FF496725143D3
:103350004FF47A72B1FBF2F1491C2268166A26F02A
:103360003F06314311626168994210D84900401EFE
:10337000B0FBF1F2521CC2F30B02042A01D204206A
:1033800022E0B0FBF1F0401CC0F30B001CE0A2688F
:10339000F2B301EBC10303EB0116431EB3FBF6F3DB
:1033A0005B1C43F480431B0549D092B301EBC1027F
:1033B00002EB0111401EB0FBF1F0401CC0F30B000A
:1033C00040F4804040F400402168CA694CF6FF7325
:1033D0009A431043C861D4E907100143206802688A
:1033E00022F0C00211430160D4E9030101432068C7
:1033F000826848F2FF339A4311438160D4E9051093
:1034000001432068C26822F0FF021143C16001E05D
:103410000EE016E02068016841F0010101602564BA
:10342000202084F83D00256384F83E50002070BDC4
:1034300001EB4106431EB3FBF6F35B1CB3E701202F
:10344000C2E701EB4101401EB0FBF1F0401CC0F3AC
:103450000B00B7E7A086010080841E0000093D0034
:1034600040420F002DE9FF4F83B00446DDE911987B
:103470008A469346109FFFF723FF054694F83D00C8
:10348000202803D0022007B0BDE8F08F19230122C5
:1034900094492046009502F0C4FC08B10220F2E7EE
:1034A00094F83C00012807D0012084F83C002068F3
:1034B0000168C90702D005E00220E4E7016841F095
:1034C000010101602068016821F40061016022208F
:1034D00084F83D00402084F83E00002626646762A0
:1034E000A4F82A90608D20857F48E062CDE90085B0
:1034F0005A4651462046069B02F06AFB08B101205D
:10350000C1E7208D48B1012810D002281CD02068C6
:10351000416980690290754FD8E0206841698169EE
:103520000291016841F400710160F4E720680168CC
:1035300021F480610160206841698169029101681C
:1035400041F400710160E6E72068016821F48061C0
:1035500001602068016841F40061016020684169F0
:1035600080690290D7E703287ED801280BD0022873
:103570001FD04346002239462046009502F051FCF8
:10358000F0B301207FE72A464146204602F0DAFCEC
:1035900008B1012077E720680069616A0870606AF5
:1035A000401C6062208D401E2085608D401E60851D
:1035B0008CE04346002239462046009502F031FC5B
:1035C00008B101205FE72068016841F400710160E3
:1035D00020680069616A0870606A401C6062218D21
:1035E000491E2185618D491E618521680969017027
:1035F000606A401C6062208D401E2085608D00E066
:1036000002E0401E608561E02068016821F480616D
:10361000016020680069616A0870606A401C60622D
:10362000208D401E2085608D401E6085434600220F
:1036300039462046009502F0F4FB08B1012022E74C
:103640002068016841F40071016020680069616AC6
:103650000870606A401C6062218D491E2185618D61
:10366000491E6185216800E00BE009690170606A0C
:10367000401C6062208D401E2085608D401E60854C
:1036800024E02A464146204602F05CFC08B10120B5
:10369000F9E620680069616A0870606A401C60622F
:1036A000218D491E2185618D491E618521684A69E8
:1036B000D24352070AD409690170606A401C6062F3
:1036C000208D401E2085608D401E6085208D002845
:1036D0007FF449AF20203C346070A6702670002033
:1036E000D1E60000020010000000FFFF040001000E
:1036F0002DE9FF4F83B00446DDE911988A469346D1
:10370000109DFFF7DDFD064694F83D00202803D00C
:10371000022007B0BDE8F08F19230122434920465B
:10372000009602F07EFB08B10220F2E794F83C001C
:10373000012807D0012084F83C0020680168C907EF
:1037400002D005E00220E4E7016841F001010160D8
:103750002068016821F400610160212084F83D00A7
:10376000402084F83E00002727646562A4F82A9070
:10377000608D20852E48E062CDE900865A4651468C
:103780002046069B02F0C4FA80B30120C1E732460E
:103790004146204602F00CFC48B1206C042804D1BC
:1037A0002068016841F4007101600120B1E7606A9E
:1037B000216800780861656A6D1C6562208D401E75
:1037C00080B22085618D491E618523685969C9438E
:1037D00049070BD450B128781861606A401C6062B8
:1037E000208D401E2085608D401E6085208D002824
:1037F000CDD132464146204602F0ECFA48B1206C69
:10380000042804D12068016841F40071016001209E
:103810007FE71F3454F81F0C016841F40071016008
:103820002020A077E7776777002072E7020010007A
:103830000000FFFFF0B587B00446142102A8FCF792
:10384000CAFE1D492068884233D11C48016841F0F6
:1038500004010160016801F004010191016841F077
:1038600001010160006800F0010001904FF4007058
:103870000290122703970124049403260596042539
:10388000069502A90E48FFF71DFC2002029003973F
:1038900004940596069502A90A48FFF713FC074809
:1038A0001030016841F400010160006800F400007C
:1038B000019007B0F0BD0000005C004030380240CD
:1038C000000802400000024002488168027811446A
:1038D00081607047F002002010B50B48016841F488
:1038E00000710160016841F480610160016841F488
:1038F00080710160032000F08DF80F2000F006F8C1
:1039000000F03EF8002010BD003C024010B588B029
:10391000014600221C2000F05DF81C2000F04CF84D
:1039200000241448016841F001010160006800F0C2
:103930000100019002A903A800F02AFE00F04CFE4D
:1039400040000D49B0FBF1F1491E0C484FF0804298
:10395000026040F2E732C26041600461846001F0BD
:10396000BFFA10B1012008B010BD044801F018FBE7
:10397000F9E700004038024040420F00CC520020DE
:1039800082B00C48016841F480410160006800F495
:10399000804001900748001F016841F0805101609C
:1039A000006800F08050019000220F21901E02B0AC
:1039B00000F010B844380240002809DB00F01F0274
:1039C000012191404009800000F1E020C0F8001181
:1039D00070470000F0B40D460D4B1B68C3F3022383
:1039E000C3F10704042C00D90424191D072901D2AE
:1039F000002300E0DB1E012606FA04F1491E2940DF
:103A000099409E40761E16403143F0BC08F0FFBB43
:103A10000CED00E000F00701054A10684FF6FF03C7
:103A2000184040EA01200349084310607047000035
:103A30000CED00E00000FA057047006841620020CC
:103A4000704770B50368586A002907D09C6A00EB7C
:103A5000144400204FF48275491E0AE040EA0240F7
:103A600098620DE005EB80069E5904EB1644401C5D
:103A7000C0B28842F6D305EB810144EA02405850B7
:103A8000002070BDD0F8080507F01CB901EBC10299
:103A900000EB8202D0F80805D26C07F03DB801EBCC
:103AA000C10200EB8202D0F80805D2F88C2207F0A0
:103AB000A1B8D0F8080507F007B90A0601F00F0110
:103AC00001EBC10100EB810101D53C3101E001F5C1
:103AD0001F71006808F0BEB870B504460B0601F00F
:103AE0000F0000EBC00104EB81014FF001024FF029
:103AF000000502D53C314A7002E001F51F714D709E
:103B0000087094F8BC04012808D084F8BC2420680C
:103B100007F058FD84F8BC54002070BD022070BD31
:103B200070B5044601F00F006268904201D901208F
:103B300070BD0B0601F00F0101EBC10104EB810127
:103B40004FF001024FF0000502D53C314A7002E00F
:103B500001F51F714D708D70087094F8BC04012838
:103B600008D084F8BC24206807F020FF84F8BC54F7
:103B7000002070BD022070BD01F00F0101EBC101FA
:103B800000EB8100D0F89C0270472DE9F04104461B
:103B90000F0601F00F0000EBC00104EB81014FF0B4
:103BA00001064FF0000502D53C314E7002E001F5F0
:103BB0001F714D700870CA600B714A7802B108819C
:103BC000022B00D14D7194F8BC04012809D084F86F
:103BD000BC64206807F042FC284684F8BC54BDE869
:103BE000F0810220FBE770B50D4605F00F0404EBF1
:103BF000C40100EB810101F51F710A618B61002393
:103C00000B624B700C700369012B00D14A612A07CB
:103C100005D0027C006807F021FF002070BD027C07
:103C2000006807F00DFEF8E770B504460D466168C0
:103C300005F00F00884201D9012070BD29064FF020
:103C400000064FF0010206D500EBC00104EB810134
:103C50003C314A7006E005EBC50104EB810101F53A
:103C60001F714E708A70087094F8BC04012807D048
:103C700084F8BC24206807F0C5FE280702D007E0BE
:103C8000022070BD217C04F2C442206807F064FE6B
:103C900084F8BC64002070BD70B50D4605F00F04BB
:103CA00004EBC40100EB81013C310A618B6100230C
:103CB0000B6201234B700C700369012B00D14A6128
:103CC0002A0705D0027C006807F0C8FE002070BDFE
:103CD000027C006807F0B4FDF8E72DE9F84F0446D0
:103CE0002568284608F064F800287ED1206808F08E
:103CF0008BF8002879D0D5F80808C0F30D20C4F857
:103D0000FC04206808F080F8800704D52068416929
:103D100001F002014161206808F076F8C10604F262
:103D2000C440009035D52068816921F0100181617F
:103D30002F6A07F00F0000EBC00004EB800606F5C9
:103D40001F76C7F34340022802D0062812D01BE09A
:103D500047F6F070074217D0C7F30A1217462846F5
:103D6000316908F055F8306938443061306A3844B8
:103D7000306209E008222846009908F049F8306AC4
:103D8000C7F30A11084430622068816941F01001CC
:103D90008161206808F038F800034FF0080B4FF0FD
:103DA00000094FF001085ED50026206808F00BF8E6
:103DB000824655E05FEACA704FD0F1B2206808F041
:103DC0001BF80746F80707D005EB4610C0F8088B2C
:103DD0003146204603F068F8380709D505EB461050
:103DE000C0F808BB3146204600E0F9E103F038F89E
:103DF000F80604D505EB46111020C1F8080BB807EA
:103E00001CD56869000605D5D5F8040840F4806122
:103E1000C5F8041806EBC60004EB800000F51F701F
:103E2000C178012905D180F80390F1B2204600F055
:103E3000DDF905EB46110220C1F8080BB80604D5E0
:103E400005EB46102021C0F8081BB80405D505EB8A
:103E500046104FF40051C0F8081B761C4FEA5A0A6E
:103E6000BAF1000FA6D1206807F0CEFF40036CD551
:103E7000206807F0A1FF8246002663E05FEACA706F
:103E80005DD0F1B2206807F0A5FF0746F80723D000
:103E900006F00F0108FA01F0D5F834188143C5F88F
:103EA000341805EB4610C0F80889206901280FD1A5
:103EB00006EBC60004EB8000D0E912211144C16476
:103EC00036B9606D20B920680121009A07F044FDE1
:103ED000F1B22046FFF7DAFD380703D505EB4610AF
:103EE000C0F808B9F80604D505EB46111020C1F852
:103EF0000809780604D505EB46104021C0F80819DA
:103F0000B80716D53146284607F01EFF06EBC60057
:103F100004EB80003C30C178012905D180F8039082
:103F2000F1B2204600F05EF905EB46110220C1F81F
:103F30000809380603D53146204603F027F8761CD9
:103F40004FEA5A0ABAF1000F98D1206807F05CFFD7
:103F5000002811DAD5F8040820F00101C5F804188A
:103F600094F8F404012829D0204600F00EFA2068C5
:103F7000416901F000414161206807F045FF0005FB
:103F80000BD5D5F80808C00702D0204600F042FA49
:103F90002068416901F400614161206807F034FF45
:103FA000C00461D5D5F8040820F00101C5F8041853
:103FB0001021206807F0C8FE002120E084F8F49466
:103FC00000212046FFF738FDD1E705EB411000F551
:103FD00010604FF67F328260036823F400130360A1
:103FE000C0F80822D0F8002222F40012C0F8002203
:103FF000D0F8002242F00062C0F80022491C60683C
:104000008842E2D8D5F81C0840F00111C5F81C1808
:10401000206B60B1D5F8840840F00B01C5F8841816
:10402000D5F8440840F00B01C5F844180CE0D5F869
:10403000140842F22B010843C5F81408D5F81008FB
:1040400040F00B01C5F81018D5F8000820F4FE6107
:10405000C5F80018217C2068009A07F07DFC2068D4
:10406000416901F480514161206807F0CDFE800470
:1040700015D5206807F034FA206807F089FEE06063
:1040800000F0A4FA0146227B206807F027FF2046B3
:1040900000F064F92068416901F400514161206831
:1040A00007F0B2FE000707D5204600F072F920683D
:1040B000416901F008014161206807F0A5FE000692
:1040C00015D5A86920F08001A96101260CE006EB56
:1040D000C60004EB800090F87F02012803D1F1B202
:1040E0002046FFF7EAFC761C6068B042EFD82068F3
:1040F00007F08AFEC00220D5012616E005EB461027
:10410000D0F8001906EBC60004EB800090F84020C0
:10411000012A09D1002907DA80F83F80F0B240F087
:1041200080012046FFF7C9FC761C6068B042E5D8E4
:104130002068416901F480114161206807F064FE44
:10414000800230D5012026E005EB4011D1F8001B9C
:1041500000EBC00204EB820292F88032012B19D1ED
:10416000002917DA94F8FC3401F4803103F00103DC
:1041700099420FD182F87F82A96941F08002AA6139
:104180006969090606D4D5F8040840F40070C5F83A
:10419000040803E0401C61688142D5D82068416969
:1041A00001F400114161206807F02EFE400007D5A0
:1041B0002046FFF767FC2068416901F080414161BA
:1041C000206807F021FE40070AD520684568680787
:1041D00002D52046FFF76DFC206841682943416005
:1041E000BDE8F88FD0F8080506F0C2BDD0F8080584
:1041F00006F0D3BD2DE9F0418AB00446002C05D06D
:10420000266894F8BD04002520B108E001200AB01A
:10421000BDE8F08184F8BC54204600F05DF803202E
:1042200084F8BD04F06BC00500D42561206807F058
:1042300001FB04F11001282288466846FCF76FF95B
:1042400094E80F0007F05AF9022718B184F8BD74FA
:104250000120DCE70021206807F0F9FD002101269C
:104260000DE001EBC10004EB80003C3046700170B2
:1042700001810571C56005618561491CC9B260682D
:104280008842EED800210DE001EBC10004EB800074
:1042900000F51F70457001700571C560056185618D
:1042A000491CC9B260688842EED828224146684657
:1042B000FCF735F994E80F0007F004FA18B184F818
:1042C000BD740120A3E784F8385084F8BD642068E9
:1042D00007F0EAF900209AE710B586B004461421E9
:1042E00001A8FCF778F92068B0F1A04F2FD1002188
:1042F0001848026842F001020260006800F0010004
:1043000000904FF4C05001900220029003910320CE
:1043100004900A20059001A90F48FEF7D3FE0D482E
:10432000001D016841F0800101600A4814300168F5
:1043300041F480410160006800F480400090002258
:1043400005214320FFF746FB4320FFF735FB06B06E
:1043500010BD0000303802400000024070B5044635
:104360000125E06800280ED0022801D0FDF710FDDD
:104370002946D4F8080506F081FDD4F80805BDE803
:10438000704006F034BD0025F2E7D0F8080506F0CD
:104390005EBDD0F8080506F064BD10B5044694F87B
:1043A000BC0401280BD0012084F8BC0484F8381028
:1043B000206807F07CFD002084F8BC0410BD0220BA
:1043C00010BDD0F8082500F2C441104606F062BDC9
:1043D00010B50446206894F8BC14012906D00121C8
:1043E00084F8BC14A16A012902D008E0022010BDA3
:1043F000A169012903D0816B41F480318163206878
:1044000007F07AFC206807F041F9002084F8BC042A
:1044100010BD000010B50446D4F8080506F07EFD76
:104420002068D0F8001E41F00101C0F8001E206A8B
:10443000002804D00248016841F00601016010BD67
:1044400010ED00E02DE9F04704460D46002C13D096
:10445000DFF82891D9F80000EFB200F00700A84279
:104460000CD289F80070D9F8000000F00700A842CB
:1044700004D00120BDE8F0870120FBE72068404E12
:10448000810712D5400703D5306840F4E050306012
:104490002078000703D5306840F460403060306811
:1044A000A16820F0F000084330602078C00731D0C8
:1044B000334960680839012808D002280BD0032846
:1044C00009D0096889070BD40120D3E7096889035B
:1044D00006D40120CEE70968890101D40120C9E78B
:1044E000316821F0030101433160FEF7E9FE8046A7
:1044F00041F2883A07E0FEF7E3FEA0EB08005045E2
:1045000001D90320B6E73068616800F00C00B0EB19
:10451000810FF0D1D9F8000000F00700A84209D9B6
:1045200089F80070D9F8000000F00700A84201D017
:1045300001209FE72078400705D53068E16820F426
:10454000E050084330602078000706D530682169C4
:1045500020F4604040EAC100306000F05DF831684E
:10456000084AC1F30311515CC84007490860074875
:104570000068FFF7CBF900207CE70000003C024018
:1045800008380240EC110108FC020020F40200206F
:104590000F2202600B4A136803F0030343601368A1
:1045A00003F0F0038360136803F4E053C360126800
:1045B00002F46042D20802610348006800F007007C
:1045C0000860704708380240003C0240014800681B
:1045D00070470000FC02002000B5FFF7F7FF044918
:1045E0000968044AC1F38221515CC84000BD000043
:1045F00008380240FC11010800B5FFF7E7FF044945
:104600000968044AC1F34231515CC84000BD000052
:1046100008380240FC11010810B51748006810F076
:104620000C01164816D0164B042912D0082911D1B6
:10463000114C241F216801F03F02216849020AD56C
:104640002068C0F38810A0FB03010023FBF78CFE59
:1046500009E0184610BD21680023C1F38811A1FBB1
:104660000001FBF781FE2168C1F30141491C4900AB
:10467000B0FBF1F010BD0000083802400024F40047
:10468000001BB7002DE9F84F0446002C13D020780A
:10469000DFF8A083C007A8F1040556D008F1040094
:1046A0000168C1F3810101290CD00068C0F38100C9
:1046B000022803D00DE00120BDE8F88FD8F80000F3
:1046C000400206D5286880033FD5606870BB012092
:1046D000F2E76068B0F5803F10D0B0F5A02F12D09F
:1046E000286820F480302860286820F48020286022
:1046F0006068E0B1FEF7E4FD064614E0286840F487
:1047000080302860F4E7286840F48020286028681A
:1047100040F480302860EBE7FEF7D2FD801B642870
:1047200001D90320C8E728688003F5D50DE0FEF71E
:10473000C7FD064606E0FEF7C3FD801B642801D9CD
:104740000320B9E728688003F5D42078BA4F8007A2
:104750004FF0000948D5B748001D016811F00C0F53
:1047600008D00068C0F38100022813D1D8F80000F7
:1047700040020FD42868800704D5E068012801D0E2
:10478000012099E72868216920F0F80040EAC1007B
:10479000286029E0E068B8B101203860FEF790FD9C
:1047A000064606E0FEF78CFD801B022801D9032097
:1047B00082E728688007F5D52868216920F0F8008D
:1047C00040EAC10028600FE0C7F80090FEF778FDCE
:1047D000064606E0FEF774FD801B022801D903207F
:1047E0006AE728688007F5D42078000729D5DFF824
:1047F00044A2924861690AF1700A89B101210160FD
:10480000FEF75EFD064606E0FEF75AFD801B022815
:1048100001D9032050E7DAF800008007F4D510E052
:10482000C0F80090FEF74CFD064606E0FEF748FD96
:10483000801B022801D903203EE7DAF80000800738
:10484000F4D42078400778D54FF0000A79483C30FE
:104850000068C0000BD477483C30016841F08051BB
:104860000160006800F0805000904FF0010ADFF80E
:10487000D0B1DBF80000C00514D4DBF8000040F430
:104880008070CBF80000FEF71BFD064606E0FEF741
:1048900017FD801B022801D903200DE7DBF800007B
:1048A000C005F4D5634EA0686C3601280FD00528EA
:1048B00012D0306820F001003060306820F0040031
:1048C0003060A068F8B1FEF7FBFC834617E0306863
:1048D00040F001003060F4E7306840F004003060E0
:1048E000306840F001003060EBE7FEF7E9FCA0EB38
:1048F0000B0141F28830814201D90320DCE63068A7
:104900008007F2D510E0FEF7DBFC834609E0FEF7F6
:10491000D7FCA0EB0B0141F28830814201D9032082
:10492000CAE630688007F2D4BAF1010F05D14148D8
:104930003C30016821F080510160A069C0B33D495D
:10494000091D09684FF0FF36C1F38101022946D0E5
:10495000022805D0C7F86090FEF7B2FC04463AE0A2
:10496000C7F86090FEF7ACFC814607E0FEF7A8FCB4
:10497000A0EB0900022801D903209DE628688001E8
:10498000F4D4D4E907010843616AA26A890106EBFD
:10499000520241EA0241084394F82C1040EA0160B7
:1049A000C8F8000001203866FEF78AFC044607E0DC
:1049B0003DE0FEF785FC001B022801D903207BE6C1
:1049C00028688001F5D532E0FEF77AFC001B02284A
:1049D00001D9032070E628688001F5D427E001287A
:1049E00023D0D8F80000E26900F4800191421AD186
:1049F000226A00F03F01914215D147F6C071626A08
:104A00000140B1EB821F0ED1A26A00F4403106EBE7
:104A10005202B1EB024F06D194F82C1000F07060F6
:104A2000B0EB016F03D0012046E6012044E60020F0
:104A300042E600000438024000004742800E474230
:104A40000070004070B50446002C09D0606A002553
:104A500040B125616561A56294F8510040B10CE058
:104A6000012070BD6068B0F5827FF4D0E561F2E7A7
:104A700084F85050204600F045F8022084F8510098
:104A80002068016821F040010160A088218900F4BC
:104A9000827001F404410843A18901F400610843D4
:104AA000217C01F002010843217D01F0010108434E
:104AB000218B01F400710843217F01F03801084384
:104AC00094F8201001F080010843218D01F4005179
:104AD000084321680860A069042101EA104094F8A5
:104AE000241001F010010843216848602068C16962
:104AF00021F40061C1616565012084F85100002046
:104B000070BD00002DE9F04387B00546142102A8CE
:104B1000FBF761FD3949286888426CD10026384886
:104B2000016841F480510160006800F480500190F8
:104B300033481438016841F002010160016801F056
:104B400002010191016841F001010160006800F07B
:104B500001000190182002904FF00208CDF80C805F
:104B60004FF00109CDF8109003240594052706970E
:104B700002A92448FEF7A6FA80200290CDF80C8006
:104B8000CDF810900594069702A91F48FEF79AFAEF
:104B90001F4C1E4820604FF0C068C4F80480A66017
:104BA000E660071527616661A661E6614FF4403053
:104BB000206266622046FEF779F908B1FDF7E8F851
:104BC000EC64A5631148124C183060342060C4F8BE
:104BD00004804020A060E66027616661A661E6610E
:104BE000C002206266622046FEF760F908B1FDF758
:104BF000CFF8AC64A56307B0BDE8F0830030014096
:104C00004438024000040240000002404064024078
:104C1000F03100202DE9F84F04460A9E8A4693465B
:104C20001F4601254FF0000894F8500001280ED0CF
:104C3000012084F85000FEF743FB814694F85100B0
:104C4000616801280DD0B1F5827F07D102E0022012
:104C5000BDE8F88FA16809B9042802D04FF0020816
:104C6000C3E0BAF1000F28D0BBF1000F25D0380007
:104C700023D094F85100042802D0052084F8510074
:104C800000206065C4F838B0E787A787C4F830A073
:104C9000E786A7862064606420680168490603D41B
:104CA000016841F040010160E068B0F5006F07D095
:104CB0006068E8B3012F48D07DE04FF0010894E030
:104CC000606808B1012F39D1206B21680088C86065
:104CD000206B801C2063E08E401EE0862EE0206862
:104CE000816889070DD5E18E59B1012D09D1216B5C
:104CF0000988C160206B801C2063E08E401EE08626
:104D0000002520688168C9070BD0E18F49B1C068D0
:104D1000A16B0880A06B801CA063E08F401EE08721
:104D20000125FEF7CDFAA0EB0900B04206D300E062
:104D30000BE0701C02D04FF0030856E0E08E002814
:104D4000CDD1E08F0028CAD13BE0206B21680078EC
:104D50000873206B401C2063E08E401EE0862AE032
:104D60002068816889070DD5E18E59B1012D09D1DF
:104D7000216B09780173206B401C2063E08E401E7C
:104D8000E086002520688168C9070BD0E18F49B112
:104D9000C068A16B0870A06B401CA063E08F401E30
:104DA000E0870125FEF78CFAA0EB0900B04201D3A1
:104DB000701C11D186B1E08E0028D1D1E08F00287F
:104DC000CED14A463146204604F040FA38B14FF081
:104DD00001082020606508E04FF0030805E0A068A6
:104DE00018B92068C1688068009001205034607054
:104DF0000020207040462BE77047704710B590F8B0
:104E00003C20012A22D0012280F83C20CA680023DD
:104E10008C6822F4407222434C6822F48062224360
:104E20000C6822F4006222430C6922F4805222436F
:104E30004C6922F400522243C96922F480420A4399
:104E400001684A6480F83C30002010BD022010BD8B
:104E500070B590F83C20012A31D0012680F83C60E2
:104E6000022280F83D2002685468936824F070059F
:104E70000C682C435460134C0268A24214D0B2F167
:104E8000804F11D0104CA2420ED0104CA2420BD039
:104E90000F4CA24208D00F4CA24205D00E4CA242A9
:104EA00002D00E4CA24204D123F08003496819437A
:104EB00091603C30467000210170002070BD0220DE
:104EC00070BD0000000001400004004000080040E8
:104ED000000C004000040140004001400018004068
:104EE00010B50446002C03D094F83D0010B107E043
:104EF000012010BD002084F83C00204600F016F888
:104F0000022084F83D00211D206804F087FC012068
:104F10003D3460726070A070E07020716071A071AB
:104F2000E07120722070002010BD000008B50068FC
:104F3000174A1849904208D1086840F002000860FA
:104F4000086800F00200009008BD134A90420AD1A0
:104F50001048001D016841F400310160006800F450
:104F60000030009008BD0D4A9042FBD1086840F423
:104F700080700860086800F48070009000220521AD
:104F80002D20FEF727FDBDE808402D20FEF714BDBB
:104F9000000400404038024000440140002000402E
:104FA00090F83D10012901D001207047022180F8BE
:104FB0003D100168CA6842F00102CA6000681449E5
:104FC000884214D0B0F1804F11D0124988420ED0DF
:104FD000114988420BD01149884208D010498842B3
:104FE00005D01049884202D00F49884209D1816812
:104FF00001F00701062908D0016841F001010160B4
:1050000003E0016841F001010160002070470000E9
:10501000000001400004004000080040000C004077
:1050200000040140004001400018004070B50446F3
:10503000002594F83C00012817D0012684F83C6034
:10504000022084F83D002068826822F0770222F472
:105050007F4282600868502838D00DDC202853D069
:1050600005DC90B3102811D14EE0022070BD30282D
:105070004AD040280AD13DE0602831D070280CD0B9
:10508000B0F5805F03D0B0F5005F12D001253C344D
:10509000667000202070284670BDCB68D1E90121E0
:1050A000206804F02EFC2068816841F0770181605F
:1050B000EDE7CB68D1E90121206804F022FC2068EB
:1050C000816841F480418160E1E71DE0CA68496878
:1050D000206804F0F9FC5021206804F01CFCD6E79D
:1050E000CA684968206804F000FD6021206804F067
:1050F00012FCCCE7CA684968206804F0E5FC40214E
:10510000206804F008FCC2E722680146104604F05B
:1051100002FCBCE7704770B50446206801694FF097
:105120000005C943890716D4C168C943890712D449
:10513000E91E01610120207720688069800703D083
:105140002046FFF7E7FF05E0204600F01FF9204664
:1051500000F0D8F9257720680169C943490718D4B8
:10516000C168C943490714D46FF0040101610220EA
:1051700020772068806910F4407F03D02046FFF735
:10518000C9FF05E0204600F001F9204600F0BAF919
:10519000257720680169C943090717D4C168C94345
:1051A000090713D46FF008010161042020772068FB
:1051B000C069800703D02046FFF7ACFF05E020461A
:1051C00000F0E4F8204600F09DF925772068016999
:1051D000C943C90618D4C168C943C90614D46FF0BD
:1051E00010010161082020772068C06910F4407F19
:1051F00003D02046FFF78EFF05E0204600F0C6F8FA
:10520000204600F07FF9257720680169C943C90766
:1052100008D1C168C943C90704D1891E016120466C
:1052200000F0E0F920680169C943090609D4C168A2
:10523000C943090605D46FF0800101612046FFF7DC
:10524000DBFD20680169C943490609D4C168C94327
:10525000490605D46FF040010161204600F0C9F90C
:1052600020680169C94389060BD4C168C94389060E
:1052700007D46FF0200101612046BDE87040FFF7C0
:10528000BCBD70BDF0B587B00446142102A8FBF781
:10529000A2F9354B20680026344902240125032257
:1052A00098421FD1086840F010000860086800F0BC
:1052B000100001904FF42850029003940495059239
:1052C00006952B4F02A93846FDF7FCFE60030290BD
:1052D000039404960596069502A93846FDF7F2FE5A
:1052E00007B0F0BD234B984212D1086840F004008B
:1052F0000860086800F0040001909815029003947B
:1053000004950592069402A91B48FDF7DBFEE7E72A
:105310001A4B984212D1086840F4807008600868FF
:1053200000F480700190C0200290039404960596CA
:10533000069202A91248FDF7C5FED1E7114B98422B
:10534000CED1086840F020000860086800F0200016
:10535000019040200290039404950592069202A9C0
:105360000948FDF7AFFEBBE70000014030380240BE
:105370000010024000040040000802400004014008
:10538000002002400044014000140240704770B504
:1053900004460D46002694F83C0001280FD0012059
:1053A00084F83C006AB1042A1FD0082A32D00C2AA3
:1053B00044D00126002084F83C00304670BD022015
:1053C00070BD2946206804F0AFFA2068816941F079
:1053D000080181612068816921F0040181612068F0
:1053E00081692A6911438161E4E72946206804F054
:1053F000CFFA2068816941F4006181612068816988
:1054000021F480618161206881692A6941EA022171
:105410008161CFE72946206804F0F4FA2068C16969
:1054200041F00801C1612068C16921F00401C16136
:105430002068C1692A691143C161BBE72946206818
:1054400004F018FB2068C16941F40061C161206863
:10545000C16921F48061C1612068C1692A6941EA9A
:105460000221C161A6E710B50446002C03D094F8D0
:105470003D0010B107E0012010BD002084F83C0081
:10548000204600F015F8022084F83D00211D206818
:1054900004F0C4F901203D3460726070A070E070C7
:1054A00020716071A071E07120722070002010BD29
:1054B00008B50068104A1149904208D1086840F0C8
:1054C00001000860086800F00100009008BD0C4A67
:1054D0009042FBD1086840F002000860086800F0C4
:1054E00002000090002205212D20FEF773FABDE88E
:1054F00008402D20FEF760BA000001404438024009
:10550000000401407047000010B50446002909D08E
:1055100004290AD008290BD094F8410001280AD0A8
:10552000012010BD94F83E00F8E794F83F00F5E73D
:1055300094F84000F2E70220A9B3042937D00829E3
:1055400038D084F841000122206804F0CDF91E49CA
:1055500020681E4A884201D0904203D1436C43F434
:10556000004343642068884213D0B0F1804F10D0CC
:10557000174988420DD0174988420AD016498842F7
:1055800007D0904205D01549884202D0144988427C
:1055900013D1816801F00701062912D0016841F09A
:1055A000010101600DE0FFE784F83E00CBE784F8DD
:1055B0003F00C8E784F84000C5E7016841F00101F9
:1055C0000160002010BD0000000001400004014007
:1055D0000004004000080040000C00400040014072
:1055E000001800400068B0F1804F01D1FEF76CB99F
:1055F0007047704770477047F8B5044622681068D6
:10560000D168536900F00F06002E08D1850606D533
:105610008D0604D52046BDE8F84004F00DBB0025FA
:10562000002E66D003F0010601F49077374360D076
:10563000C20705D0CA0503D5226C42F001022264DC
:10564000420705D5DA0703D0226C42F00202226439
:10565000820705D5DA0703D0226C42F004022264E7
:10566000020707D501F02002324303D0226C42F03A
:1056700008022264226C002A31D0800604D58806F4
:1056800002D5204604F0D8FA20684069C0F38010A3
:10569000216C090700D438B3204604F08BFA206847
:1056A000406940061CD52068143050E8001F21F0E6
:1056B000400140E80012002AF5D1A06B60B15749C3
:1056C0000165A06BFDF7F7FA002808D0A06B016D0B
:1056D00001B0BDE8F04008472046FFF78CFFF8BD59
:1056E0002046FFF788FFF8BD2046FFF784FF2564BA
:1056F000F8BD236B012B7ED1C3067CD5CB067AD5B2
:1057000010685068009050694FF02003400643D560
:10571000A16B0868406880B20028E9D0A28D82425F
:10572000E6D9E085C869B0F5807F2DD020680C30BF
:1057300050E8001F21F4807140E80012002AF5D1E2
:105740002068143050E8001F21F0010140E80012E9
:10575000002AF5D12068143050E8001F21F04001E4
:1057600040E80012002AF5D184F83E302563206815
:105770000C3050E8001F21F0100140E80012002A10
:10578000F5D1A06BFDF750FAA08DE18D401A81B2E2
:105790002046FFF72FFFF8BDA08DE18D401A81B2A2
:1057A000E08D0028F7D00029F5D020680C3050E8B3
:1057B000002F22F4907240E80026002EF5D12068D8
:1057C000143050E8002F22F0010240E80026002E9D
:1057D000F5D184F83E30256320680C3050E8002F66
:1057E00022F0100240E80023002BF5D12046FFF7FD
:1057F00001FFF8BDFFE7020606D50A0604D52046DC
:10580000BDE8F84004F006BB4006F2D54806F0D5E6
:105810002046BDE8F84004F0F4B900000F9B0008F2
:1058200070B50446002C04D094F83D00002510B15A
:1058300006E0012070BD84F83C50204600F022F8BC
:10584000242084F83D002068C16821F40051C16023
:10585000204604F055FA2068016921F49041016165
:105860002068416921F02A0141612068C16841F442
:105870000051C1602564202084F83D0084F83E007A
:10588000002070BD2DE9F04F87B00446142102A816
:10589000FAF7A1FE90488F4A143823688E490227F0
:1058A000002506154FF003084FF0070A4FF0400B94
:1058B0004FF0006993426BD10A6842F010020A600F
:1058C000096801F010010191016841F002010160D5
:1058D000016801F002010191016841F001010160DC
:1058E000006800F001000190802002900397049569
:1058F000CDF81480CDF818A002A97848FDF7E2FB96
:105900007010029003970495CDF81480CDF818A07C
:1059100002A97348FDF7D6FB734F72483860C7F889
:105920000490C7F808B0FD603E617D61BD61FD6116
:105930004FF4403038627D623846FDF7B7FA08B15F
:10594000FCF726FA6763BC636648674F30386037F8
:105950003860C7F80490BD60FD603E617D61BD6147
:10596000FD614FF4003038627D623846FDF79EFAE3
:1059700008B1FCF70DFAA763BC63002205212520BE
:10598000FEF728F82520FEF717F807B0BDE8F08FDE
:10599000DFF858C1012263453DD14F49091F0B680B
:1059A00043F480230B60096801F4802101910168B0
:1059B00041F004010160006800F0040001904FF420
:1059C0004060029003970492CDF81480CDF818A09F
:1059D00002A94748FDF776FB434F4648C037386079
:1059E000C7F80490BD60FD603E617D61BD61FD61F1
:1059F0003D627D623846FDF759FA08B1FCF7C8F9F7
:105A0000A763BC63002205212720FDF7E3FF2720C1
:105A1000FDF7D2FFB9E7DFF8E0C06345B5D10B6809
:105A200043F020030B60096801F020010191016837
:105A300041F040010160006800F0400001904FF427
:105A40008440029003970492CDF8148008200690B9
:105A500002A92A48FDF736FB2248294F90383860C2
:105A60004FF02068C7F80480BD60FD603E617D6135
:105A7000BD61FD614FF4003038627D623846FDF74C
:105A800015FA08B1FCF784F9A763BC6315481C4FED
:105A9000183860373860C7F80480C7F808B0FD6070
:105AA0003E617D61BD61FD614FF4403038627D62D1
:105AB0003846FDF7FBF908B1FCF76AF96763BC6388
:105AC000002205214720FDF785FF4720FDF774FFE1
:105AD0005BE700000010014044380240000402402F
